{"contracts/nft/YumiNFT.sol":{"YumiNFT":{"abi":[{"inputs":[{"internalType":"address","name":"_royaltyAddress","type":"address"},{"internalType":"uint256","name":"_royaltyPerc","type":"uint256"},{"internalType":"address","name":"_admin","type":"address"},{"internalType":"address","name":"_payout","type":"address"},{"internalType":"uint256","name":"_price","type":"uint256"},{"internalType":"uint256","name":"_supply","type":"uint256"},{"internalType":"bytes32","name":"_merkleRoot","type":"bytes32"},{"internalType":"bytes32","name":"_provenanceHash","type":"bytes32"}],"stateMutability":"nonpayable","type":"constructor"},{"inputs":[],"name":"ApprovalCallerNotOwnerNorApproved","type":"error"},{"inputs":[],"name":"ApprovalQueryForNonexistentToken","type":"error"},{"inputs":[],"name":"BalanceQueryForZeroAddress","type":"error"},{"inputs":[],"name":"MintERC2309QuantityExceedsLimit","type":"error"},{"inputs":[],"name":"MintToZeroAddress","type":"error"},{"inputs":[],"name":"MintZeroQuantity","type":"error"},{"inputs":[],"name":"OwnerQueryForNonexistentToken","type":"error"},{"inputs":[],"name":"OwnershipNotInitializedForExtraData","type":"error"},{"inputs":[],"name":"TransferCallerNotOwnerNorApproved","type":"error"},{"inputs":[],"name":"TransferFromIncorrectOwner","type":"error"},{"inputs":[],"name":"TransferToNonERC721ReceiverImplementer","type":"error"},{"inputs":[],"name":"TransferToZeroAddress","type":"error"},{"inputs":[],"name":"URIQueryForNonexistentToken","type":"error"},{"anonymous":false,"inputs":[{"indexed":true,"internalType":"address","name":"owner","type":"address"},{"indexed":true,"internalType":"address","name":"approved","type":"address"},{"indexed":true,"internalType":"uint256","name":"tokenId","type":"uint256"}],"name":"Approval","type":"event"},{"anonymous":false,"inputs":[{"indexed":true,"internalType":"address","name":"owner","type":"address"},{"indexed":true,"internalType":"address","name":"operator","type":"address"},{"indexed":false,"internalType":"bool","name":"approved","type":"bool"}],"name":"ApprovalForAll","type":"event"},{"anonymous":false,"inputs":[{"indexed":true,"internalType":"uint256","name":"fromTokenId","type":"uint256"},{"indexed":false,"internalType":"uint256","name":"toTokenId","type":"uint256"},{"indexed":true,"internalType":"address","name":"from","type":"address"},{"indexed":true,"internalType":"address","name":"to","type":"address"}],"name":"ConsecutiveTransfer","type":"event"},{"anonymous":false,"inputs":[{"indexed":true,"internalType":"address","name":"previousOwner","type":"address"},{"indexed":true,"internalType":"address","name":"newOwner","type":"address"}],"name":"OwnershipTransferred","type":"event"},{"anonymous":false,"inputs":[{"indexed":true,"internalType":"address","name":"from","type":"address"},{"indexed":true,"internalType":"address","name":"to","type":"address"},{"indexed":true,"internalType":"uint256","name":"tokenId","type":"uint256"}],"name":"Transfer","type":"event"},{"inputs":[],"name":"adminAddress","outputs":[{"internalType":"address","name":"","type":"address"}],"stateMutability":"view","type":"function"},{"inputs":[{"internalType":"address[]","name":"addresses","type":"address[]"}],"name":"airdrop","outputs":[],"stateMutability":"nonpayable","type":"function"},{"inputs":[],"name":"allowlistMerkleRoot","outputs":[{"internalType":"bytes32","name":"","type":"bytes32"}],"stateMutability":"view","type":"function"},{"inputs":[],"name":"allowlistSaleOpen","outputs":[{"internalType":"bool","name":"","type":"bool"}],"stateMutability":"view","type":"function"},{"inputs":[{"internalType":"address","name":"to","type":"address"},{"internalType":"uint256","name":"tokenId","type":"uint256"}],"name":"approve","outputs":[],"stateMutability":"payable","type":"function"},{"inputs":[{"internalType":"address","name":"owner","type":"address"}],"name":"balanceOf","outputs":[{"internalType":"uint256","name":"","type":"uint256"}],"stateMutability":"view","type":"function"},{"inputs":[],"name":"freezeMetadata","outputs":[],"stateMutability":"nonpayable","type":"function"},{"inputs":[],"name":"frozen","outputs":[{"internalType":"bool","name":"","type":"bool"}],"stateMutability":"view","type":"function"},{"inputs":[{"internalType":"uint256","name":"tokenId","type":"uint256"}],"name":"getApproved","outputs":[{"internalType":"address","name":"","type":"address"}],"stateMutability":"view","type":"function"},{"inputs":[{"internalType":"address","name":"addr","type":"address"}],"name":"getNumMinted","outputs":[{"internalType":"uint256","name":"","type":"uint256"}],"stateMutability":"view","type":"function"},{"inputs":[],"name":"getRemainingSupply","outputs":[{"internalType":"uint256","name":"","type":"uint256"}],"stateMutability":"view","type":"function"},{"inputs":[{"internalType":"address","name":"owner","type":"address"},{"internalType":"address","name":"operator","type":"address"}],"name":"isApprovedForAll","outputs":[{"internalType":"bool","name":"","type":"bool"}],"stateMutability":"view","type":"function"},{"inputs":[],"name":"maxSupply","outputs":[{"internalType":"uint256","name":"","type":"uint256"}],"stateMutability":"view","type":"function"},{"inputs":[{"internalType":"uint256","name":"numToMint","type":"uint256"},{"internalType":"bytes32[]","name":"merkleProof","type":"bytes32[]"}],"name":"mint","outputs":[],"stateMutability":"payable","type":"function"},{"inputs":[],"name":"mintAllowance","outputs":[{"internalType":"uint256","name":"","type":"uint256"}],"stateMutability":"view","type":"function"},{"inputs":[],"name":"mintPrice","outputs":[{"internalType":"uint256","name":"","type":"uint256"}],"stateMutability":"view","type":"function"},{"inputs":[],"name":"name","outputs":[{"internalType":"string","name":"","type":"string"}],"stateMutability":"view","type":"function"},{"inputs":[],"name":"owner","outputs":[{"internalType":"address","name":"","type":"address"}],"stateMutability":"view","type":"function"},{"inputs":[{"internalType":"uint128","name":"numToMint","type":"uint128"}],"name":"ownerMint","outputs":[],"stateMutability":"nonpayable","type":"function"},{"inputs":[{"internalType":"uint256","name":"tokenId","type":"uint256"}],"name":"ownerOf","outputs":[{"internalType":"address","name":"","type":"address"}],"stateMutability":"view","type":"function"},{"inputs":[],"name":"payoutAddress","outputs":[{"internalType":"address payable","name":"","type":"address"}],"stateMutability":"view","type":"function"},{"inputs":[],"name":"provenanceHash","outputs":[{"internalType":"bytes32","name":"","type":"bytes32"}],"stateMutability":"view","type":"function"},{"inputs":[],"name":"publicSaleOpen","outputs":[{"internalType":"bool","name":"","type":"bool"}],"stateMutability":"view","type":"function"},{"inputs":[],"name":"renounceOwnership","outputs":[],"stateMutability":"nonpayable","type":"function"},{"inputs":[{"internalType":"uint256","name":"_tokenId","type":"uint256"},{"internalType":"uint256","name":"_salePrice","type":"uint256"}],"name":"royaltyInfo","outputs":[{"internalType":"address","name":"receiver","type":"address"},{"internalType":"uint256","name":"royaltyAmount","type":"uint256"}],"stateMutability":"view","type":"function"},{"inputs":[{"internalType":"address","name":"from","type":"address"},{"internalType":"address","name":"to","type":"address"},{"internalType":"uint256","name":"tokenId","type":"uint256"}],"name":"safeTransferFrom","outputs":[],"stateMutability":"payable","type":"function"},{"inputs":[{"internalType":"address","name":"from","type":"address"},{"internalType":"address","name":"to","type":"address"},{"internalType":"uint256","name":"tokenId","type":"uint256"},{"internalType":"bytes","name":"_data","type":"bytes"}],"name":"safeTransferFrom","outputs":[],"stateMutability":"payable","type":"function"},{"inputs":[{"internalType":"address","name":"newAdmin","type":"address"}],"name":"setAdminAddress","outputs":[],"stateMutability":"nonpayable","type":"function"},{"inputs":[{"internalType":"bool","name":"status","type":"bool"}],"name":"setAllowlistSaleStatus","outputs":[],"stateMutability":"nonpayable","type":"function"},{"inputs":[{"internalType":"address","name":"operator","type":"address"},{"internalType":"bool","name":"approved","type":"bool"}],"name":"setApprovalForAll","outputs":[],"stateMutability":"nonpayable","type":"function"},{"inputs":[{"internalType":"string","name":"newURI","type":"string"}],"name":"setBaseURI","outputs":[],"stateMutability":"nonpayable","type":"function"},{"inputs":[{"internalType":"bytes32","name":"_merkleRoot","type":"bytes32"}],"name":"setMerkleRoot","outputs":[],"stateMutability":"nonpayable","type":"function"},{"inputs":[{"internalType":"uint256","name":"allowance","type":"uint256"}],"name":"setMintAllowance","outputs":[],"stateMutability":"nonpayable","type":"function"},{"inputs":[{"internalType":"address","name":"payoutAddr","type":"address"}],"name":"setPayoutAddress","outputs":[],"stateMutability":"nonpayable","type":"function"},{"inputs":[{"internalType":"bool","name":"status","type":"bool"}],"name":"setPublicSaleStatus","outputs":[],"stateMutability":"nonpayable","type":"function"},{"inputs":[{"internalType":"address","name":"newAddr","type":"address"},{"internalType":"uint256","name":"newPerc","type":"uint256"}],"name":"setRoyaltyInfo","outputs":[],"stateMutability":"nonpayable","type":"function"},{"inputs":[{"internalType":"bytes4","name":"interfaceId","type":"bytes4"}],"name":"supportsInterface","outputs":[{"internalType":"bool","name":"","type":"bool"}],"stateMutability":"view","type":"function"},{"inputs":[],"name":"symbol","outputs":[{"internalType":"string","name":"","type":"string"}],"stateMutability":"view","type":"function"},{"inputs":[{"internalType":"uint256","name":"tokenId","type":"uint256"}],"name":"tokenURI","outputs":[{"internalType":"string","name":"","type":"string"}],"stateMutability":"view","type":"function"},{"inputs":[],"name":"totalSupply","outputs":[{"internalType":"uint256","name":"","type":"uint256"}],"stateMutability":"view","type":"function"},{"inputs":[{"internalType":"address","name":"from","type":"address"},{"internalType":"address","name":"to","type":"address"},{"internalType":"uint256","name":"tokenId","type":"uint256"}],"name":"transferFrom","outputs":[],"stateMutability":"payable","type":"function"},{"inputs":[{"internalType":"address","name":"newOwner","type":"address"}],"name":"transferOwnership","outputs":[],"stateMutability":"nonpayable","type":"function"},{"inputs":[],"name":"withdrawEther","outputs":[],"stateMutability":"nonpayable","type":"function"}],"evm":{"bytecode":{"linkReferences":{},"object":"60806040523480156200001157600080fd5b5060405162002a8338038062002a8383398101604081905262000034916200019b565b60405180604001604052806008815260200167165d5b5a4813919560c21b81525060405180604001604052806002815260200161594d60f01b81525089898787878c8c86868a8a81600290816200008c9190620002bb565b5060036200009b8282620002bb565b5060016000555050600880546001600160a01b0319166001600160a01b039390931692909217909155600955620000d9620000d33390565b6200012c565b600c94909455600d92909255601055600f80546001600160a01b039283166001600160a01b031991821617909155600e805492909316911617905550505060129190915550620003879650505050505050565b600a80546001600160a01b038381166001600160a01b0319831681179093556040519116919082907f8be0079c531659141344cd1fd0a4f28419497f9722a3daafe3b4186f6b6457e090600090a35050565b80516001600160a01b03811681146200019657600080fd5b919050565b600080600080600080600080610100898b031215620001b957600080fd5b620001c4896200017e565b975060208901519650620001db60408a016200017e565b9550620001eb60608a016200017e565b94506080890151935060a0890151925060c0890151915060e089015190509295985092959890939650565b634e487b7160e01b600052604160045260246000fd5b600181811c908216806200024157607f821691505b6020821081036200026257634e487b7160e01b600052602260045260246000fd5b50919050565b601f821115620002b657600081815260208120601f850160051c81016020861015620002915750805b601f850160051c820191505b81811015620002b2578281556001016200029d565b5050505b505050565b81516001600160401b03811115620002d757620002d762000216565b620002ef81620002e884546200022c565b8462000268565b602080601f8311600181146200032757600084156200030e5750858301515b600019600386901b1c1916600185901b178555620002b2565b600085815260208120601f198616915b82811015620003585788860151825594840194600190910190840162000337565b5085821015620003775787850151600019600388901b60f8161c191681555b5050505050600190811b01905550565b6126ec80620003976000396000f3fe6080604052600436106102dc5760003560e01c80637362377b11610184578063ba41b0c6116100d6578063e2e784d51161008a578063f2fde38b11610064578063f2fde38b146107b7578063f9e23799146107d7578063fc6f9468146107f857600080fd5b8063e2e784d514610739578063e4b7fb7314610759578063e985e9c51461076e57600080fd5b8063c87b56dd116100bb578063c87b56dd146106ee578063d111515d1461070e578063d5abeb011461072357600080fd5b8063ba41b0c6146106c5578063c6ab67a3146106d857600080fd5b8063a809f7a511610138578063ae23d61311610112578063ae23d61314610672578063b423fe6714610692578063b88d4fde146106b257600080fd5b8063a809f7a514610611578063acf080d114610632578063ae129b171461065257600080fd5b80638da5cb5b116101695780638da5cb5b146105be57806395d89b41146105dc578063a22cb465146105f157600080fd5b80637362377b146105895780637cb647591461059e57600080fd5b806333ea51a81161023d5780635b8d02d7116101f157806370a08231116101cb57806370a0823114610534578063715018a614610554578063729ad39e1461056957600080fd5b80635b8d02d7146104de5780636352211e146104fe5780636817c76c1461051e57600080fd5b80633d6dc6cf116102225780633d6dc6cf1461048b57806342842e0e146104ab57806355f804b3146104be57600080fd5b806333ea51a814610455578063396876bd1461047557600080fd5b806318160ddd11610294578063293108e011610279578063293108e0146103e05780632a55205a146103f65780632c1e816d1461043557600080fd5b806318160ddd146103a657806323b872dd146103cd57600080fd5b806306fdde03116102c557806306fdde0314610337578063081812fc14610359578063095ea7b31461039157600080fd5b806301ffc9a7146102e1578063054f7d9c14610316575b600080fd5b3480156102ed57600080fd5b506103016102fc36600461201d565b610818565b60405190151581526020015b60405180910390f35b34801561032257600080fd5b50600a5461030190600160b01b900460ff1681565b34801561034357600080fd5b5061034c610838565b60405161030d919061208a565b34801561036557600080fd5b5061037961037436600461209d565b6108ca565b6040516001600160a01b03909116815260200161030d565b6103a461039f3660046120d2565b61090e565b005b3480156103b257600080fd5b5060015460005403600019015b60405190815260200161030d565b6103a46103db3660046120fc565b6109cb565b3480156103ec57600080fd5b506103bf60105481565b34801561040257600080fd5b50610416610411366004612138565b610b81565b604080516001600160a01b03909316835260208301919091520161030d565b34801561044157600080fd5b506103a461045036600461215a565b610bbd565b34801561046157600080fd5b506103a461047036600461215a565b610c68565b34801561048157600080fd5b506103bf600b5481565b34801561049757600080fd5b506103bf6104a636600461215a565b610d0e565b6103a46104b93660046120fc565b610d39565b3480156104ca57600080fd5b506103a46104d9366004612201565b610d59565b3480156104ea57600080fd5b50600e54610379906001600160a01b031681565b34801561050a57600080fd5b5061037961051936600461209d565b610e3c565b34801561052a57600080fd5b506103bf600c5481565b34801561054057600080fd5b506103bf61054f36600461215a565b610e47565b34801561056057600080fd5b506103a4610e96565b34801561057557600080fd5b506103a461058436600461228f565b610eaa565b34801561059557600080fd5b506103a4610fe4565b3480156105aa57600080fd5b506103a46105b936600461209d565b61108f565b3480156105ca57600080fd5b50600a546001600160a01b0316610379565b3480156105e857600080fd5b5061034c611103565b3480156105fd57600080fd5b506103a461060c3660046122e1565b611112565b34801561061d57600080fd5b50600a5461030190600160a01b900460ff1681565b34801561063e57600080fd5b506103a461064d36600461209d565b61117e565b34801561065e57600080fd5b506103a461066d366004612314565b6111f2565b34801561067e57600080fd5b506103a461068d36600461232f565b61129a565b34801561069e57600080fd5b506103a46106ad366004612314565b6113c5565b6103a46106c0366004612361565b61146d565b6103a46106d33660046123dd565b6114b7565b3480156106e457600080fd5b506103bf60125481565b3480156106fa57600080fd5b5061034c61070936600461209d565b61180d565b34801561071a57600080fd5b506103a4611891565b34801561072f57600080fd5b506103bf600d5481565b34801561074557600080fd5b506103a46107543660046120d2565b611930565b34801561076557600080fd5b506103bf611aba565b34801561077a57600080fd5b50610301610789366004612429565b6001600160a01b03918216600090815260076020908152604080832093909416825291909152205460ff1690565b3480156107c357600080fd5b506103a46107d236600461215a565b611adb565b3480156107e357600080fd5b50600a5461030190600160a81b900460ff1681565b34801561080457600080fd5b50600f54610379906001600160a01b031681565b600061082382611b68565b80610832575061083282611bb6565b92915050565b60606002805461084790612453565b80601f016020809104026020016040519081016040528092919081815260200182805461087390612453565b80156108c05780601f10610895576101008083540402835291602001916108c0565b820191906000526020600020905b8154815290600101906020018083116108a357829003601f168201915b5050505050905090565b60006108d582611beb565b6108f2576040516333d1c03960e21b815260040160405180910390fd5b506000908152600660205260409020546001600160a01b031690565b600061091982610e3c565b9050336001600160a01b0382161461096f576001600160a01b038116600090815260076020908152604080832033845290915290205460ff1661096f576040516367d9dca160e11b815260040160405180910390fd5b60008281526006602052604080822080546001600160a01b0319166001600160a01b0387811691821790925591518593918516917f8c5be1e5ebec7d5bd14f71427d1e84f3dd0314c0f7b2291e5b200ac8c7c3b92591a4505050565b60006109d682611c20565b9050836001600160a01b0316816001600160a01b031614610a095760405162a1148160e81b815260040160405180910390fd5b60008281526006602052604090208054338082146001600160a01b03881690911417610a73576001600160a01b038616600090815260076020908152604080832033845290915290205460ff16610a7357604051632ce44b5f60e11b815260040160405180910390fd5b6001600160a01b038516610a9a57604051633a954ecd60e21b815260040160405180910390fd5b8015610aa557600082555b6001600160a01b038681166000908152600560205260408082208054600019019055918716808252919020805460010190554260a01b17600160e11b17600085815260046020526040812091909155600160e11b84169003610b3757600184016000818152600460205260408120549003610b35576000548114610b355760008181526004602052604090208490555b505b83856001600160a01b0316876001600160a01b03167fddf252ad1be2c89b69c2b068fc378daa952ba7f163c4a11628f55a4df523b3ef60405160405180910390a45b505050505050565b60085460095460009182916001600160a01b039091169061271090610ba79086906124a3565b610bb191906124ba565b915091505b9250929050565b610bc5611c8f565b6001600160a01b038116610c465760405162461bcd60e51b815260206004820152603360248201527f45524337323141544c436f72653a204e65772061646d696e2063616e6e6f742060448201527f626520746865207a65726f20616464726573730000000000000000000000000060648201526084015b60405180910390fd5b600f80546001600160a01b0319166001600160a01b0392909216919091179055565b610c70611c8f565b6001600160a01b038116610cec5760405162461bcd60e51b815260206004820152603860248201527f45524337323141544c436f72653a205061796f7574206164647265737320636160448201527f6e6e6f7420626520746865207a65726f206164647265737300000000000000006064820152608401610c3d565b600e80546001600160a01b0319166001600160a01b0392909216919091179055565b6001600160a01b0381166000908152600560205260408082205467ffffffffffffffff911c16610832565b610d548383836040518060200160405280600081525061146d565b505050565b600f546001600160a01b0316331480610d7c5750600a546001600160a01b031633145b610dc85760405162461bcd60e51b815260206004820152602960248201526000805160206126c08339815191526044820152681037b91037bbb732b960b91b6064820152608401610c3d565b600a54600160b01b900460ff1615610e2c5760405162461bcd60e51b815260206004820152602160248201527f45524337323141544c436f72653a204d657461646174612069732066726f7a656044820152603760f91b6064820152608401610c3d565b6011610e388282612522565b5050565b600061083282611c20565b60006001600160a01b038216610e70576040516323d3ad8160e21b815260040160405180910390fd5b506001600160a01b031660009081526005602052604090205467ffffffffffffffff1690565b610e9e611c8f565b610ea86000611ce9565b565b600f546001600160a01b0316331480610ecd5750600a546001600160a01b031633145b610f195760405162461bcd60e51b815260206004820152602960248201526000805160206126c08339815191526044820152681037b91037bbb732b960b91b6064820152608401610c3d565b600d54600182610f2860005490565b610f3291906125e2565b610f3c91906125f5565b1115610f965760405162461bcd60e51b815260206004820152602360248201527f45524337323141544c436f72653a204e6f20746f6b656e20737570706c79206c60448201526219599d60ea1b6064820152608401610c3d565b60005b81811015610d5457610fd2838383818110610fb657610fb6612608565b9050602002016020810190610fcb919061215a565b6001611d3b565b80610fdc8161261e565b915050610f99565b600f546001600160a01b03163314806110075750600a546001600160a01b031633145b6110535760405162461bcd60e51b815260206004820152602960248201526000805160206126c08339815191526044820152681037b91037bbb732b960b91b6064820152608401610c3d565b600e546040516001600160a01b03909116904780156108fc02916000818181858888f1935050505015801561108c573d6000803e3d6000fd5b50565b600f546001600160a01b03163314806110b25750600a546001600160a01b031633145b6110fe5760405162461bcd60e51b815260206004820152602960248201526000805160206126c08339815191526044820152681037b91037bbb732b960b91b6064820152608401610c3d565b601055565b60606003805461084790612453565b3360008181526007602090815260408083206001600160a01b03871680855290835292819020805460ff191686151590811790915590519081529192917f17307eab39ab6107e8899845ad3d59bd9653f200f220920489ca2b5937696c31910160405180910390a35050565b600f546001600160a01b03163314806111a15750600a546001600160a01b031633145b6111ed5760405162461bcd60e51b815260206004820152602960248201526000805160206126c08339815191526044820152681037b91037bbb732b960b91b6064820152608401610c3d565b600b55565b600f546001600160a01b03163314806112155750600a546001600160a01b031633145b6112615760405162461bcd60e51b815260206004820152602960248201526000805160206126c08339815191526044820152681037b91037bbb732b960b91b6064820152608401610c3d565b600a8054911515600160a01b027fffffffffffffffffffffff00ffffffffffffffffffffffffffffffffffffffff909216919091179055565b600f546001600160a01b03163314806112bd5750600a546001600160a01b031633145b6113095760405162461bcd60e51b815260206004820152602960248201526000805160206126c08339815191526044820152681037b91037bbb732b960b91b6064820152608401610c3d565b600d546001826fffffffffffffffffffffffffffffffff1661132a60005490565b61133491906125e2565b61133e91906125f5565b11156113985760405162461bcd60e51b815260206004820152602360248201527f45524337323141544c436f72653a204e6f20746f6b656e20737570706c79206c60448201526219599d60ea1b6064820152608401610c3d565b61108c6113ad600a546001600160a01b031690565b826fffffffffffffffffffffffffffffffff16611d3b565b600f546001600160a01b03163314806113e85750600a546001600160a01b031633145b6114345760405162461bcd60e51b815260206004820152602960248201526000805160206126c08339815191526044820152681037b91037bbb732b960b91b6064820152608401610c3d565b600a8054911515600160a81b027fffffffffffffffffffff00ffffffffffffffffffffffffffffffffffffffffff909216919091179055565b6114788484846109cb565b6001600160a01b0383163b156114b15761149484848484611e39565b6114b1576040516368d2bf6b60e11b815260040160405180910390fd5b50505050565b33321461152c5760405162461bcd60e51b815260206004820152603060248201527f45524337323141544c436f72653a2046756e6374696f6e206d7573742062652060448201527f63616c6c656420627920616e20454f41000000000000000000000000000000006064820152608401610c3d565b600d5460018461153b60005490565b61154591906125e2565b61154f91906125f5565b11156115a95760405162461bcd60e51b815260206004820152602360248201527f45524337323141544c436f72653a204e6f20746f6b656e20737570706c79206c60448201526219599d60ea1b6064820152608401610c3d565b82600c546115b791906124a3565b34101561162c5760405162461bcd60e51b815260206004820152603b60248201527f45524337323141544c436f72653a204e6f7420656e6f7567682065746865722060448201527f617474616368656420746f20746865207472616e73616374696f6e00000000006064820152608401610c3d565b600b5433600090815260056020526040908190205485911c67ffffffffffffffff1661165891906125e2565b11156116cc5760405162461bcd60e51b815260206004820152602560248201527f45524337323141544c436f72653a204d696e7420616c6c6f77616e636520726560448201527f61636865640000000000000000000000000000000000000000000000000000006064820152608401610c3d565b600a54600160a01b900460ff16156117aa576040516bffffffffffffffffffffffff193360601b166020820152600090603401604051602081830303815290604052805190602001209050611758838380806020026020016040519081016040528093929190818152602001838360200280828437600092019190915250506010549150849050611f25565b6117a45760405162461bcd60e51b815260206004820152601f60248201527f45524337323141544c436f72653a204e6f74206f6e20616c6c6f776c697374006044820152606401610c3d565b50611803565b600a54600160a81b900460ff166118035760405162461bcd60e51b815260206004820152601c60248201527f45524337323141544c436f72653a204d696e74206e6f74206f70656e000000006044820152606401610c3d565b610d543384611d3b565b606061181882611beb565b61183557604051630a14c4b560e41b815260040160405180910390fd5b600061183f611f3b565b9050805160000361185f576040518060200160405280600081525061188a565b8061186984611f4a565b60405160200161187a929190612637565b6040516020818303038152906040525b9392505050565b600f546001600160a01b03163314806118b45750600a546001600160a01b031633145b6119005760405162461bcd60e51b815260206004820152602960248201526000805160206126c08339815191526044820152681037b91037bbb732b960b91b6064820152608401610c3d565b600a80547fffffffffffffffffff00ffffffffffffffffffffffffffffffffffffffffffff16600160b01b179055565b600f546001600160a01b03163314806119535750600a546001600160a01b031633145b61199f5760405162461bcd60e51b815260206004820152602960248201526000805160206126c08339815191526044820152681037b91037bbb732b960b91b6064820152608401610c3d565b6001600160a01b038216611a1d576040805162461bcd60e51b81526020600482015260248101919091527f45524337323141544c436f72653a2043616e6e6f742073657420726f79616c7460448201527f792072656365697069656e7420746f20746865207a65726f20616464726573736064820152608401610c3d565b6127108110611a945760405162461bcd60e51b815260206004820152603860248201527f45524337323141544c436f72653a2043616e6e6f742073657420726f79616c7460448201527f792070657263656e746167652061626f766520313030303000000000000000006064820152608401610c3d565b600880546001600160a01b0319166001600160a01b039390931692909217909155600955565b60008054600d54611acc9060016125e2565b611ad691906125f5565b905090565b611ae3611c8f565b6001600160a01b038116611b5f5760405162461bcd60e51b815260206004820152602660248201527f4f776e61626c653a206e6577206f776e657220697320746865207a65726f206160448201527f64647265737300000000000000000000000000000000000000000000000000006064820152608401610c3d565b61108c81611ce9565b60006301ffc9a760e01b6001600160e01b031983161480611b9957506380ac58cd60e01b6001600160e01b03198316145b806108325750506001600160e01b031916635b5e139f60e01b1490565b60006001600160e01b0319821663152a902d60e11b148061083257506301ffc9a760e01b6001600160e01b0319831614610832565b600081600111158015611bff575060005482105b8015610832575050600090815260046020526040902054600160e01b161590565b60008180600111611c7657600054811015611c765760008181526004602052604081205490600160e01b82169003611c74575b8060000361188a575060001901600081815260046020526040902054611c53565b505b604051636f96cda160e11b815260040160405180910390fd5b600a546001600160a01b03163314610ea85760405162461bcd60e51b815260206004820181905260248201527f4f776e61626c653a2063616c6c6572206973206e6f7420746865206f776e65726044820152606401610c3d565b600a80546001600160a01b038381166001600160a01b0319831681179093556040519116919082907f8be0079c531659141344cd1fd0a4f28419497f9722a3daafe3b4186f6b6457e090600090a35050565b6000805490829003611d605760405163b562e8dd60e01b815260040160405180910390fd5b6001600160a01b03831660008181526005602090815260408083208054680100000000000000018802019055848352600490915281206001851460e11b4260a01b178317905582840190839083907fddf252ad1be2c89b69c2b068fc378daa952ba7f163c4a11628f55a4df523b3ef8180a4600183015b818114611e0f57808360007fddf252ad1be2c89b69c2b068fc378daa952ba7f163c4a11628f55a4df523b3ef600080a4600101611dd7565b5081600003611e3057604051622e076360e81b815260040160405180910390fd5b60005550505050565b604051630a85bd0160e11b81526000906001600160a01b0385169063150b7a0290611e6e903390899088908890600401612666565b6020604051808303816000875af1925050508015611ea9575060408051601f3d908101601f19168201909252611ea6918101906126a2565b60015b611f07573d808015611ed7576040519150601f19603f3d011682016040523d82523d6000602084013e611edc565b606091505b508051600003611eff576040516368d2bf6b60e11b815260040160405180910390fd5b805181602001fd5b6001600160e01b031916630a85bd0160e11b1490505b949350505050565b600082611f328584611f8e565b14949350505050565b60606011805461084790612453565b606060a06040510180604052602081039150506000815280825b600183039250600a81066030018353600a900480611f645750819003601f19909101908152919050565b600081815b8451811015611fd357611fbf82868381518110611fb257611fb2612608565b6020026020010151611fdb565b915080611fcb8161261e565b915050611f93565b509392505050565b6000818310611ff757600082815260208490526040902061188a565b5060009182526020526040902090565b6001600160e01b03198116811461108c57600080fd5b60006020828403121561202f57600080fd5b813561188a81612007565b60005b8381101561205557818101518382015260200161203d565b50506000910152565b6000815180845261207681602086016020860161203a565b601f01601f19169290920160200192915050565b60208152600061188a602083018461205e565b6000602082840312156120af57600080fd5b5035919050565b80356001600160a01b03811681146120cd57600080fd5b919050565b600080604083850312156120e557600080fd5b6120ee836120b6565b946020939093013593505050565b60008060006060848603121561211157600080fd5b61211a846120b6565b9250612128602085016120b6565b9150604084013590509250925092565b6000806040838503121561214b57600080fd5b50508035926020909101359150565b60006020828403121561216c57600080fd5b61188a826120b6565b634e487b7160e01b600052604160045260246000fd5b600067ffffffffffffffff808411156121a6576121a6612175565b604051601f8501601f19908116603f011681019082821181831017156121ce576121ce612175565b816040528093508581528686860111156121e757600080fd5b858560208301376000602087830101525050509392505050565b60006020828403121561221357600080fd5b813567ffffffffffffffff81111561222a57600080fd5b8201601f8101841361223b57600080fd5b611f1d8482356020840161218b565b60008083601f84011261225c57600080fd5b50813567ffffffffffffffff81111561227457600080fd5b6020830191508360208260051b8501011115610bb657600080fd5b600080602083850312156122a257600080fd5b823567ffffffffffffffff8111156122b957600080fd5b6122c58582860161224a565b90969095509350505050565b803580151581146120cd57600080fd5b600080604083850312156122f457600080fd5b6122fd836120b6565b915061230b602084016122d1565b90509250929050565b60006020828403121561232657600080fd5b61188a826122d1565b60006020828403121561234157600080fd5b81356fffffffffffffffffffffffffffffffff8116811461188a57600080fd5b6000806000806080858703121561237757600080fd5b612380856120b6565b935061238e602086016120b6565b925060408501359150606085013567ffffffffffffffff8111156123b157600080fd5b8501601f810187136123c257600080fd5b6123d18782356020840161218b565b91505092959194509250565b6000806000604084860312156123f257600080fd5b83359250602084013567ffffffffffffffff81111561241057600080fd5b61241c8682870161224a565b9497909650939450505050565b6000806040838503121561243c57600080fd5b612445836120b6565b915061230b602084016120b6565b600181811c9082168061246757607f821691505b60208210810361248757634e487b7160e01b600052602260045260246000fd5b50919050565b634e487b7160e01b600052601160045260246000fd5b80820281158282048414176108325761083261248d565b6000826124d757634e487b7160e01b600052601260045260246000fd5b500490565b601f821115610d5457600081815260208120601f850160051c810160208610156125035750805b601f850160051c820191505b81811015610b795782815560010161250f565b815167ffffffffffffffff81111561253c5761253c612175565b6125508161254a8454612453565b846124dc565b602080601f831160018114612585576000841561256d5750858301515b600019600386901b1c1916600185901b178555610b79565b600085815260208120601f198616915b828110156125b457888601518255948401946001909101908401612595565b50858210156125d25787850151600019600388901b60f8161c191681555b5050505050600190811b01905550565b808201808211156108325761083261248d565b818103818111156108325761083261248d565b634e487b7160e01b600052603260045260246000fd5b6000600182016126305761263061248d565b5060010190565b6000835161264981846020880161203a565b83519083019061265d81836020880161203a565b01949350505050565b60006001600160a01b03808716835280861660208401525083604083015260806060830152612698608083018461205e565b9695505050505050565b6000602082840312156126b457600080fd5b815161188a8161200756fe45524337323141544c436f72653a2041646472657373206e6f742061646d696ea164736f6c6343000811000a","opcodes":"PUSH1 0x80 PUSH1 0x40 MSTORE CALLVALUE DUP1 ISZERO PUSH3 0x11 JUMPI PUSH1 0x0 DUP1 REVERT JUMPDEST POP PUSH1 0x40 MLOAD PUSH3 0x2A83 CODESIZE SUB DUP1 PUSH3 0x2A83 DUP4 CODECOPY DUP2 ADD PUSH1 0x40 DUP2 SWAP1 MSTORE PUSH3 0x34 SWAP2 PUSH3 0x19B JUMP JUMPDEST PUSH1 0x40 MLOAD DUP1 PUSH1 0x40 ADD PUSH1 0x40 MSTORE DUP1 PUSH1 0x8 DUP2 MSTORE PUSH1 0x20 ADD PUSH8 0x165D5B5A48139195 PUSH1 0xC2 SHL DUP2 MSTORE POP PUSH1 0x40 MLOAD DUP1 PUSH1 0x40 ADD PUSH1 0x40 MSTORE DUP1 PUSH1 0x2 DUP2 MSTORE PUSH1 0x20 ADD PUSH2 0x594D PUSH1 0xF0 SHL DUP2 MSTORE POP DUP10 DUP10 DUP8 DUP8 DUP8 DUP13 DUP13 DUP7 DUP7 DUP11 DUP11 DUP2 PUSH1 0x2 SWAP1 DUP2 PUSH3 0x8C SWAP2 SWAP1 PUSH3 0x2BB JUMP JUMPDEST POP PUSH1 0x3 PUSH3 0x9B DUP3 DUP3 PUSH3 0x2BB JUMP JUMPDEST POP PUSH1 0x1 PUSH1 0x0 SSTORE POP POP PUSH1 0x8 DUP1 SLOAD PUSH1 0x1 PUSH1 0x1 PUSH1 0xA0 SHL SUB NOT AND PUSH1 0x1 PUSH1 0x1 PUSH1 0xA0 SHL SUB SWAP4 SWAP1 SWAP4 AND SWAP3 SWAP1 SWAP3 OR SWAP1 SWAP2 SSTORE PUSH1 0x9 SSTORE PUSH3 0xD9 PUSH3 0xD3 CALLER SWAP1 JUMP JUMPDEST PUSH3 0x12C JUMP JUMPDEST PUSH1 0xC SWAP5 SWAP1 SWAP5 SSTORE PUSH1 0xD SWAP3 SWAP1 SWAP3 SSTORE PUSH1 0x10 SSTORE PUSH1 0xF DUP1 SLOAD PUSH1 0x1 PUSH1 0x1 PUSH1 0xA0 SHL SUB SWAP3 DUP4 AND PUSH1 0x1 PUSH1 0x1 PUSH1 0xA0 SHL SUB NOT SWAP2 DUP3 AND OR SWAP1 SWAP2 SSTORE PUSH1 0xE DUP1 SLOAD SWAP3 SWAP1 SWAP4 AND SWAP2 AND OR SWAP1 SSTORE POP POP POP PUSH1 0x12 SWAP2 SWAP1 SWAP2 SSTORE POP PUSH3 0x387 SWAP7 POP POP POP POP POP POP POP JUMP JUMPDEST PUSH1 0xA DUP1 SLOAD PUSH1 0x1 PUSH1 0x1 PUSH1 0xA0 SHL SUB DUP4 DUP2 AND PUSH1 0x1 PUSH1 0x1 PUSH1 0xA0 SHL SUB NOT DUP4 AND DUP2 OR SWAP1 SWAP4 SSTORE PUSH1 0x40 MLOAD SWAP2 AND SWAP2 SWAP1 DUP3 SWAP1 PUSH32 0x8BE0079C531659141344CD1FD0A4F28419497F9722A3DAAFE3B4186F6B6457E0 SWAP1 PUSH1 0x0 SWAP1 LOG3 POP POP JUMP JUMPDEST DUP1 MLOAD PUSH1 0x1 PUSH1 0x1 PUSH1 0xA0 SHL SUB DUP2 AND DUP2 EQ PUSH3 0x196 JUMPI PUSH1 0x0 DUP1 REVERT JUMPDEST SWAP2 SWAP1 POP JUMP JUMPDEST PUSH1 0x0 DUP1 PUSH1 0x0 DUP1 PUSH1 0x0 DUP1 PUSH1 0x0 DUP1 PUSH2 0x100 DUP10 DUP12 SUB SLT ISZERO PUSH3 0x1B9 JUMPI PUSH1 0x0 DUP1 REVERT JUMPDEST PUSH3 0x1C4 DUP10 PUSH3 0x17E JUMP JUMPDEST SWAP8 POP PUSH1 0x20 DUP10 ADD MLOAD SWAP7 POP PUSH3 0x1DB PUSH1 0x40 DUP11 ADD PUSH3 0x17E JUMP JUMPDEST SWAP6 POP PUSH3 0x1EB PUSH1 0x60 DUP11 ADD PUSH3 0x17E JUMP JUMPDEST SWAP5 POP PUSH1 0x80 DUP10 ADD MLOAD SWAP4 POP PUSH1 0xA0 DUP10 ADD MLOAD SWAP3 POP PUSH1 0xC0 DUP10 ADD MLOAD SWAP2 POP PUSH1 0xE0 DUP10 ADD MLOAD SWAP1 POP SWAP3 SWAP6 SWAP9 POP SWAP3 SWAP6 SWAP9 SWAP1 SWAP4 SWAP7 POP JUMP JUMPDEST PUSH4 0x4E487B71 PUSH1 0xE0 SHL PUSH1 0x0 MSTORE PUSH1 0x41 PUSH1 0x4 MSTORE PUSH1 0x24 PUSH1 0x0 REVERT JUMPDEST PUSH1 0x1 DUP2 DUP2 SHR SWAP1 DUP3 AND DUP1 PUSH3 0x241 JUMPI PUSH1 0x7F DUP3 AND SWAP2 POP JUMPDEST PUSH1 0x20 DUP3 LT DUP2 SUB PUSH3 0x262 JUMPI PUSH4 0x4E487B71 PUSH1 0xE0 SHL PUSH1 0x0 MSTORE PUSH1 0x22 PUSH1 0x4 MSTORE PUSH1 0x24 PUSH1 0x0 REVERT JUMPDEST POP SWAP2 SWAP1 POP JUMP JUMPDEST PUSH1 0x1F DUP3 GT ISZERO PUSH3 0x2B6 JUMPI PUSH1 0x0 DUP2 DUP2 MSTORE PUSH1 0x20 DUP2 KECCAK256 PUSH1 0x1F DUP6 ADD PUSH1 0x5 SHR DUP2 ADD PUSH1 0x20 DUP7 LT ISZERO PUSH3 0x291 JUMPI POP DUP1 JUMPDEST PUSH1 0x1F DUP6 ADD PUSH1 0x5 SHR DUP3 ADD SWAP2 POP JUMPDEST DUP2 DUP2 LT ISZERO PUSH3 0x2B2 JUMPI DUP3 DUP2 SSTORE PUSH1 0x1 ADD PUSH3 0x29D JUMP JUMPDEST POP POP POP JUMPDEST POP POP POP JUMP JUMPDEST DUP2 MLOAD PUSH1 0x1 PUSH1 0x1 PUSH1 0x40 SHL SUB DUP2 GT ISZERO PUSH3 0x2D7 JUMPI PUSH3 0x2D7 PUSH3 0x216 JUMP JUMPDEST PUSH3 0x2EF DUP2 PUSH3 0x2E8 DUP5 SLOAD PUSH3 0x22C JUMP JUMPDEST DUP5 PUSH3 0x268 JUMP JUMPDEST PUSH1 0x20 DUP1 PUSH1 0x1F DUP4 GT PUSH1 0x1 DUP2 EQ PUSH3 0x327 JUMPI PUSH1 0x0 DUP5 ISZERO PUSH3 0x30E JUMPI POP DUP6 DUP4 ADD MLOAD JUMPDEST PUSH1 0x0 NOT PUSH1 0x3 DUP7 SWAP1 SHL SHR NOT AND PUSH1 0x1 DUP6 SWAP1 SHL OR DUP6 SSTORE PUSH3 0x2B2 JUMP JUMPDEST PUSH1 0x0 DUP6 DUP2 MSTORE PUSH1 0x20 DUP2 KECCAK256 PUSH1 0x1F NOT DUP7 AND SWAP2 JUMPDEST DUP3 DUP2 LT ISZERO PUSH3 0x358 JUMPI DUP9 DUP7 ADD MLOAD DUP3 SSTORE SWAP5 DUP5 ADD SWAP5 PUSH1 0x1 SWAP1 SWAP2 ADD SWAP1 DUP5 ADD PUSH3 0x337 JUMP JUMPDEST POP DUP6 DUP3 LT ISZERO PUSH3 0x377 JUMPI DUP8 DUP6 ADD MLOAD PUSH1 0x0 NOT PUSH1 0x3 DUP9 SWAP1 SHL PUSH1 0xF8 AND SHR NOT AND DUP2 SSTORE JUMPDEST POP POP POP POP POP PUSH1 0x1 SWAP1 DUP2 SHL ADD SWAP1 SSTORE POP JUMP JUMPDEST PUSH2 0x26EC DUP1 PUSH3 0x397 PUSH1 0x0 CODECOPY PUSH1 0x0 RETURN INVALID PUSH1 0x80 PUSH1 0x40 MSTORE PUSH1 0x4 CALLDATASIZE LT PUSH2 0x2DC JUMPI PUSH1 0x0 CALLDATALOAD PUSH1 0xE0 SHR DUP1 PUSH4 0x7362377B GT PUSH2 0x184 JUMPI DUP1 PUSH4 0xBA41B0C6 GT PUSH2 0xD6 JUMPI DUP1 PUSH4 0xE2E784D5 GT PUSH2 0x8A JUMPI DUP1 PUSH4 0xF2FDE38B GT PUSH2 0x64 JUMPI DUP1 PUSH4 0xF2FDE38B EQ PUSH2 0x7B7 JUMPI DUP1 PUSH4 0xF9E23799 EQ PUSH2 0x7D7 JUMPI DUP1 PUSH4 0xFC6F9468 EQ PUSH2 0x7F8 JUMPI PUSH1 0x0 DUP1 REVERT JUMPDEST DUP1 PUSH4 0xE2E784D5 EQ PUSH2 0x739 JUMPI DUP1 PUSH4 0xE4B7FB73 EQ PUSH2 0x759 JUMPI DUP1 PUSH4 0xE985E9C5 EQ PUSH2 0x76E JUMPI PUSH1 0x0 DUP1 REVERT JUMPDEST DUP1 PUSH4 0xC87B56DD GT PUSH2 0xBB JUMPI DUP1 PUSH4 0xC87B56DD EQ PUSH2 0x6EE JUMPI DUP1 PUSH4 0xD111515D EQ PUSH2 0x70E JUMPI DUP1 PUSH4 0xD5ABEB01 EQ PUSH2 0x723 JUMPI PUSH1 0x0 DUP1 REVERT JUMPDEST DUP1 PUSH4 0xBA41B0C6 EQ PUSH2 0x6C5 JUMPI DUP1 PUSH4 0xC6AB67A3 EQ PUSH2 0x6D8 JUMPI PUSH1 0x0 DUP1 REVERT JUMPDEST DUP1 PUSH4 0xA809F7A5 GT PUSH2 0x138 JUMPI DUP1 PUSH4 0xAE23D613 GT PUSH2 0x112 JUMPI DUP1 PUSH4 0xAE23D613 EQ PUSH2 0x672 JUMPI DUP1 PUSH4 0xB423FE67 EQ PUSH2 0x692 JUMPI DUP1 PUSH4 0xB88D4FDE EQ PUSH2 0x6B2 JUMPI PUSH1 0x0 DUP1 REVERT JUMPDEST DUP1 PUSH4 0xA809F7A5 EQ PUSH2 0x611 JUMPI DUP1 PUSH4 0xACF080D1 EQ PUSH2 0x632 JUMPI DUP1 PUSH4 0xAE129B17 EQ PUSH2 0x652 JUMPI PUSH1 0x0 DUP1 REVERT JUMPDEST DUP1 PUSH4 0x8DA5CB5B GT PUSH2 0x169 JUMPI DUP1 PUSH4 0x8DA5CB5B EQ PUSH2 0x5BE JUMPI DUP1 PUSH4 0x95D89B41 EQ PUSH2 0x5DC JUMPI DUP1 PUSH4 0xA22CB465 EQ PUSH2 0x5F1 JUMPI PUSH1 0x0 DUP1 REVERT JUMPDEST DUP1 PUSH4 0x7362377B EQ PUSH2 0x589 JUMPI DUP1 PUSH4 0x7CB64759 EQ PUSH2 0x59E JUMPI PUSH1 0x0 DUP1 REVERT JUMPDEST DUP1 PUSH4 0x33EA51A8 GT PUSH2 0x23D JUMPI DUP1 PUSH4 0x5B8D02D7 GT PUSH2 0x1F1 JUMPI DUP1 PUSH4 0x70A08231 GT PUSH2 0x1CB JUMPI DUP1 PUSH4 0x70A08231 EQ PUSH2 0x534 JUMPI DUP1 PUSH4 0x715018A6 EQ PUSH2 0x554 JUMPI DUP1 PUSH4 0x729AD39E EQ PUSH2 0x569 JUMPI PUSH1 0x0 DUP1 REVERT JUMPDEST DUP1 PUSH4 0x5B8D02D7 EQ PUSH2 0x4DE JUMPI DUP1 PUSH4 0x6352211E EQ PUSH2 0x4FE JUMPI DUP1 PUSH4 0x6817C76C EQ PUSH2 0x51E JUMPI PUSH1 0x0 DUP1 REVERT JUMPDEST DUP1 PUSH4 0x3D6DC6CF GT PUSH2 0x222 JUMPI DUP1 PUSH4 0x3D6DC6CF EQ PUSH2 0x48B JUMPI DUP1 PUSH4 0x42842E0E EQ PUSH2 0x4AB JUMPI DUP1 PUSH4 0x55F804B3 EQ PUSH2 0x4BE JUMPI PUSH1 0x0 DUP1 REVERT JUMPDEST DUP1 PUSH4 0x33EA51A8 EQ PUSH2 0x455 JUMPI DUP1 PUSH4 0x396876BD EQ PUSH2 0x475 JUMPI PUSH1 0x0 DUP1 REVERT JUMPDEST DUP1 PUSH4 0x18160DDD GT PUSH2 0x294 JUMPI DUP1 PUSH4 0x293108E0 GT PUSH2 0x279 JUMPI DUP1 PUSH4 0x293108E0 EQ PUSH2 0x3E0 JUMPI DUP1 PUSH4 0x2A55205A EQ PUSH2 0x3F6 JUMPI DUP1 PUSH4 0x2C1E816D EQ PUSH2 0x435 JUMPI PUSH1 0x0 DUP1 REVERT JUMPDEST DUP1 PUSH4 0x18160DDD EQ PUSH2 0x3A6 JUMPI DUP1 PUSH4 0x23B872DD EQ PUSH2 0x3CD JUMPI PUSH1 0x0 DUP1 REVERT JUMPDEST DUP1 PUSH4 0x6FDDE03 GT PUSH2 0x2C5 JUMPI DUP1 PUSH4 0x6FDDE03 EQ PUSH2 0x337 JUMPI DUP1 PUSH4 0x81812FC EQ PUSH2 0x359 JUMPI DUP1 PUSH4 0x95EA7B3 EQ PUSH2 0x391 JUMPI PUSH1 0x0 DUP1 REVERT JUMPDEST DUP1 PUSH4 0x1FFC9A7 EQ PUSH2 0x2E1 JUMPI DUP1 PUSH4 0x54F7D9C EQ PUSH2 0x316 JUMPI JUMPDEST PUSH1 0x0 DUP1 REVERT JUMPDEST CALLVALUE DUP1 ISZERO PUSH2 0x2ED JUMPI PUSH1 0x0 DUP1 REVERT JUMPDEST POP PUSH2 0x301 PUSH2 0x2FC CALLDATASIZE PUSH1 0x4 PUSH2 0x201D JUMP JUMPDEST PUSH2 0x818 JUMP JUMPDEST PUSH1 0x40 MLOAD SWAP1 ISZERO ISZERO DUP2 MSTORE PUSH1 0x20 ADD JUMPDEST PUSH1 0x40 MLOAD DUP1 SWAP2 SUB SWAP1 RETURN JUMPDEST CALLVALUE DUP1 ISZERO PUSH2 0x322 JUMPI PUSH1 0x0 DUP1 REVERT JUMPDEST POP PUSH1 0xA SLOAD PUSH2 0x301 SWAP1 PUSH1 0x1 PUSH1 0xB0 SHL SWAP1 DIV PUSH1 0xFF AND DUP2 JUMP JUMPDEST CALLVALUE DUP1 ISZERO PUSH2 0x343 JUMPI PUSH1 0x0 DUP1 REVERT JUMPDEST POP PUSH2 0x34C PUSH2 0x838 JUMP JUMPDEST PUSH1 0x40 MLOAD PUSH2 0x30D SWAP2 SWAP1 PUSH2 0x208A JUMP JUMPDEST CALLVALUE DUP1 ISZERO PUSH2 0x365 JUMPI PUSH1 0x0 DUP1 REVERT JUMPDEST POP PUSH2 0x379 PUSH2 0x374 CALLDATASIZE PUSH1 0x4 PUSH2 0x209D JUMP JUMPDEST PUSH2 0x8CA JUMP JUMPDEST PUSH1 0x40 MLOAD PUSH1 0x1 PUSH1 0x1 PUSH1 0xA0 SHL SUB SWAP1 SWAP2 AND DUP2 MSTORE PUSH1 0x20 ADD PUSH2 0x30D JUMP JUMPDEST PUSH2 0x3A4 PUSH2 0x39F CALLDATASIZE PUSH1 0x4 PUSH2 0x20D2 JUMP JUMPDEST PUSH2 0x90E JUMP JUMPDEST STOP JUMPDEST CALLVALUE DUP1 ISZERO PUSH2 0x3B2 JUMPI PUSH1 0x0 DUP1 REVERT JUMPDEST POP PUSH1 0x1 SLOAD PUSH1 0x0 SLOAD SUB PUSH1 0x0 NOT ADD JUMPDEST PUSH1 0x40 MLOAD SWAP1 DUP2 MSTORE PUSH1 0x20 ADD PUSH2 0x30D JUMP JUMPDEST PUSH2 0x3A4 PUSH2 0x3DB CALLDATASIZE PUSH1 0x4 PUSH2 0x20FC JUMP JUMPDEST PUSH2 0x9CB JUMP JUMPDEST CALLVALUE DUP1 ISZERO PUSH2 0x3EC JUMPI PUSH1 0x0 DUP1 REVERT JUMPDEST POP PUSH2 0x3BF PUSH1 0x10 SLOAD DUP2 JUMP JUMPDEST CALLVALUE DUP1 ISZERO PUSH2 0x402 JUMPI PUSH1 0x0 DUP1 REVERT JUMPDEST POP PUSH2 0x416 PUSH2 0x411 CALLDATASIZE PUSH1 0x4 PUSH2 0x2138 JUMP JUMPDEST PUSH2 0xB81 JUMP JUMPDEST PUSH1 0x40 DUP1 MLOAD PUSH1 0x1 PUSH1 0x1 PUSH1 0xA0 SHL SUB SWAP1 SWAP4 AND DUP4 MSTORE PUSH1 0x20 DUP4 ADD SWAP2 SWAP1 SWAP2 MSTORE ADD PUSH2 0x30D JUMP JUMPDEST CALLVALUE DUP1 ISZERO PUSH2 0x441 JUMPI PUSH1 0x0 DUP1 REVERT JUMPDEST POP PUSH2 0x3A4 PUSH2 0x450 CALLDATASIZE PUSH1 0x4 PUSH2 0x215A JUMP JUMPDEST PUSH2 0xBBD JUMP JUMPDEST CALLVALUE DUP1 ISZERO PUSH2 0x461 JUMPI PUSH1 0x0 DUP1 REVERT JUMPDEST POP PUSH2 0x3A4 PUSH2 0x470 CALLDATASIZE PUSH1 0x4 PUSH2 0x215A JUMP JUMPDEST PUSH2 0xC68 JUMP JUMPDEST CALLVALUE DUP1 ISZERO PUSH2 0x481 JUMPI PUSH1 0x0 DUP1 REVERT JUMPDEST POP PUSH2 0x3BF PUSH1 0xB SLOAD DUP2 JUMP JUMPDEST CALLVALUE DUP1 ISZERO PUSH2 0x497 JUMPI PUSH1 0x0 DUP1 REVERT JUMPDEST POP PUSH2 0x3BF PUSH2 0x4A6 CALLDATASIZE PUSH1 0x4 PUSH2 0x215A JUMP JUMPDEST PUSH2 0xD0E JUMP JUMPDEST PUSH2 0x3A4 PUSH2 0x4B9 CALLDATASIZE PUSH1 0x4 PUSH2 0x20FC JUMP JUMPDEST PUSH2 0xD39 JUMP JUMPDEST CALLVALUE DUP1 ISZERO PUSH2 0x4CA JUMPI PUSH1 0x0 DUP1 REVERT JUMPDEST POP PUSH2 0x3A4 PUSH2 0x4D9 CALLDATASIZE PUSH1 0x4 PUSH2 0x2201 JUMP JUMPDEST PUSH2 0xD59 JUMP JUMPDEST CALLVALUE DUP1 ISZERO PUSH2 0x4EA JUMPI PUSH1 0x0 DUP1 REVERT JUMPDEST POP PUSH1 0xE SLOAD PUSH2 0x379 SWAP1 PUSH1 0x1 PUSH1 0x1 PUSH1 0xA0 SHL SUB AND DUP2 JUMP JUMPDEST CALLVALUE DUP1 ISZERO PUSH2 0x50A JUMPI PUSH1 0x0 DUP1 REVERT JUMPDEST POP PUSH2 0x379 PUSH2 0x519 CALLDATASIZE PUSH1 0x4 PUSH2 0x209D JUMP JUMPDEST PUSH2 0xE3C JUMP JUMPDEST CALLVALUE DUP1 ISZERO PUSH2 0x52A JUMPI PUSH1 0x0 DUP1 REVERT JUMPDEST POP PUSH2 0x3BF PUSH1 0xC SLOAD DUP2 JUMP JUMPDEST CALLVALUE DUP1 ISZERO PUSH2 0x540 JUMPI PUSH1 0x0 DUP1 REVERT JUMPDEST POP PUSH2 0x3BF PUSH2 0x54F CALLDATASIZE PUSH1 0x4 PUSH2 0x215A JUMP JUMPDEST PUSH2 0xE47 JUMP JUMPDEST CALLVALUE DUP1 ISZERO PUSH2 0x560 JUMPI PUSH1 0x0 DUP1 REVERT JUMPDEST POP PUSH2 0x3A4 PUSH2 0xE96 JUMP JUMPDEST CALLVALUE DUP1 ISZERO PUSH2 0x575 JUMPI PUSH1 0x0 DUP1 REVERT JUMPDEST POP PUSH2 0x3A4 PUSH2 0x584 CALLDATASIZE PUSH1 0x4 PUSH2 0x228F JUMP JUMPDEST PUSH2 0xEAA JUMP JUMPDEST CALLVALUE DUP1 ISZERO PUSH2 0x595 JUMPI PUSH1 0x0 DUP1 REVERT JUMPDEST POP PUSH2 0x3A4 PUSH2 0xFE4 JUMP JUMPDEST CALLVALUE DUP1 ISZERO PUSH2 0x5AA JUMPI PUSH1 0x0 DUP1 REVERT JUMPDEST POP PUSH2 0x3A4 PUSH2 0x5B9 CALLDATASIZE PUSH1 0x4 PUSH2 0x209D JUMP JUMPDEST PUSH2 0x108F JUMP JUMPDEST CALLVALUE DUP1 ISZERO PUSH2 0x5CA JUMPI PUSH1 0x0 DUP1 REVERT JUMPDEST POP PUSH1 0xA SLOAD PUSH1 0x1 PUSH1 0x1 PUSH1 0xA0 SHL SUB AND PUSH2 0x379 JUMP JUMPDEST CALLVALUE DUP1 ISZERO PUSH2 0x5E8 JUMPI PUSH1 0x0 DUP1 REVERT JUMPDEST POP PUSH2 0x34C PUSH2 0x1103 JUMP JUMPDEST CALLVALUE DUP1 ISZERO PUSH2 0x5FD JUMPI PUSH1 0x0 DUP1 REVERT JUMPDEST POP PUSH2 0x3A4 PUSH2 0x60C CALLDATASIZE PUSH1 0x4 PUSH2 0x22E1 JUMP JUMPDEST PUSH2 0x1112 JUMP JUMPDEST CALLVALUE DUP1 ISZERO PUSH2 0x61D JUMPI PUSH1 0x0 DUP1 REVERT JUMPDEST POP PUSH1 0xA SLOAD PUSH2 0x301 SWAP1 PUSH1 0x1 PUSH1 0xA0 SHL SWAP1 DIV PUSH1 0xFF AND DUP2 JUMP JUMPDEST CALLVALUE DUP1 ISZERO PUSH2 0x63E JUMPI PUSH1 0x0 DUP1 REVERT JUMPDEST POP PUSH2 0x3A4 PUSH2 0x64D CALLDATASIZE PUSH1 0x4 PUSH2 0x209D JUMP JUMPDEST PUSH2 0x117E JUMP JUMPDEST CALLVALUE DUP1 ISZERO PUSH2 0x65E JUMPI PUSH1 0x0 DUP1 REVERT JUMPDEST POP PUSH2 0x3A4 PUSH2 0x66D CALLDATASIZE PUSH1 0x4 PUSH2 0x2314 JUMP JUMPDEST PUSH2 0x11F2 JUMP JUMPDEST CALLVALUE DUP1 ISZERO PUSH2 0x67E JUMPI PUSH1 0x0 DUP1 REVERT JUMPDEST POP PUSH2 0x3A4 PUSH2 0x68D CALLDATASIZE PUSH1 0x4 PUSH2 0x232F JUMP JUMPDEST PUSH2 0x129A JUMP JUMPDEST CALLVALUE DUP1 ISZERO PUSH2 0x69E JUMPI PUSH1 0x0 DUP1 REVERT JUMPDEST POP PUSH2 0x3A4 PUSH2 0x6AD CALLDATASIZE PUSH1 0x4 PUSH2 0x2314 JUMP JUMPDEST PUSH2 0x13C5 JUMP JUMPDEST PUSH2 0x3A4 PUSH2 0x6C0 CALLDATASIZE PUSH1 0x4 PUSH2 0x2361 JUMP JUMPDEST PUSH2 0x146D JUMP JUMPDEST PUSH2 0x3A4 PUSH2 0x6D3 CALLDATASIZE PUSH1 0x4 PUSH2 0x23DD JUMP JUMPDEST PUSH2 0x14B7 JUMP JUMPDEST CALLVALUE DUP1 ISZERO PUSH2 0x6E4 JUMPI PUSH1 0x0 DUP1 REVERT JUMPDEST POP PUSH2 0x3BF PUSH1 0x12 SLOAD DUP2 JUMP JUMPDEST CALLVALUE DUP1 ISZERO PUSH2 0x6FA JUMPI PUSH1 0x0 DUP1 REVERT JUMPDEST POP PUSH2 0x34C PUSH2 0x709 CALLDATASIZE PUSH1 0x4 PUSH2 0x209D JUMP JUMPDEST PUSH2 0x180D JUMP JUMPDEST CALLVALUE DUP1 ISZERO PUSH2 0x71A JUMPI PUSH1 0x0 DUP1 REVERT JUMPDEST POP PUSH2 0x3A4 PUSH2 0x1891 JUMP JUMPDEST CALLVALUE DUP1 ISZERO PUSH2 0x72F JUMPI PUSH1 0x0 DUP1 REVERT JUMPDEST POP PUSH2 0x3BF PUSH1 0xD SLOAD DUP2 JUMP JUMPDEST CALLVALUE DUP1 ISZERO PUSH2 0x745 JUMPI PUSH1 0x0 DUP1 REVERT JUMPDEST POP PUSH2 0x3A4 PUSH2 0x754 CALLDATASIZE PUSH1 0x4 PUSH2 0x20D2 JUMP JUMPDEST PUSH2 0x1930 JUMP JUMPDEST CALLVALUE DUP1 ISZERO PUSH2 0x765 JUMPI PUSH1 0x0 DUP1 REVERT JUMPDEST POP PUSH2 0x3BF PUSH2 0x1ABA JUMP JUMPDEST CALLVALUE DUP1 ISZERO PUSH2 0x77A JUMPI PUSH1 0x0 DUP1 REVERT JUMPDEST POP PUSH2 0x301 PUSH2 0x789 CALLDATASIZE PUSH1 0x4 PUSH2 0x2429 JUMP JUMPDEST PUSH1 0x1 PUSH1 0x1 PUSH1 0xA0 SHL SUB SWAP2 DUP3 AND PUSH1 0x0 SWAP1 DUP2 MSTORE PUSH1 0x7 PUSH1 0x20 SWAP1 DUP2 MSTORE PUSH1 0x40 DUP1 DUP4 KECCAK256 SWAP4 SWAP1 SWAP5 AND DUP3 MSTORE SWAP2 SWAP1 SWAP2 MSTORE KECCAK256 SLOAD PUSH1 0xFF AND SWAP1 JUMP JUMPDEST CALLVALUE DUP1 ISZERO PUSH2 0x7C3 JUMPI PUSH1 0x0 DUP1 REVERT JUMPDEST POP PUSH2 0x3A4 PUSH2 0x7D2 CALLDATASIZE PUSH1 0x4 PUSH2 0x215A JUMP JUMPDEST PUSH2 0x1ADB JUMP JUMPDEST CALLVALUE DUP1 ISZERO PUSH2 0x7E3 JUMPI PUSH1 0x0 DUP1 REVERT JUMPDEST POP PUSH1 0xA SLOAD PUSH2 0x301 SWAP1 PUSH1 0x1 PUSH1 0xA8 SHL SWAP1 DIV PUSH1 0xFF AND DUP2 JUMP JUMPDEST CALLVALUE DUP1 ISZERO PUSH2 0x804 JUMPI PUSH1 0x0 DUP1 REVERT JUMPDEST POP PUSH1 0xF SLOAD PUSH2 0x379 SWAP1 PUSH1 0x1 PUSH1 0x1 PUSH1 0xA0 SHL SUB AND DUP2 JUMP JUMPDEST PUSH1 0x0 PUSH2 0x823 DUP3 PUSH2 0x1B68 JUMP JUMPDEST DUP1 PUSH2 0x832 JUMPI POP PUSH2 0x832 DUP3 PUSH2 0x1BB6 JUMP JUMPDEST SWAP3 SWAP2 POP POP JUMP JUMPDEST PUSH1 0x60 PUSH1 0x2 DUP1 SLOAD PUSH2 0x847 SWAP1 PUSH2 0x2453 JUMP JUMPDEST DUP1 PUSH1 0x1F ADD PUSH1 0x20 DUP1 SWAP2 DIV MUL PUSH1 0x20 ADD PUSH1 0x40 MLOAD SWAP1 DUP2 ADD PUSH1 0x40 MSTORE DUP1 SWAP3 SWAP2 SWAP1 DUP2 DUP2 MSTORE PUSH1 0x20 ADD DUP3 DUP1 SLOAD PUSH2 0x873 SWAP1 PUSH2 0x2453 JUMP JUMPDEST DUP1 ISZERO PUSH2 0x8C0 JUMPI DUP1 PUSH1 0x1F LT PUSH2 0x895 JUMPI PUSH2 0x100 DUP1 DUP4 SLOAD DIV MUL DUP4 MSTORE SWAP2 PUSH1 0x20 ADD SWAP2 PUSH2 0x8C0 JUMP JUMPDEST DUP3 ADD SWAP2 SWAP1 PUSH1 0x0 MSTORE PUSH1 0x20 PUSH1 0x0 KECCAK256 SWAP1 JUMPDEST DUP2 SLOAD DUP2 MSTORE SWAP1 PUSH1 0x1 ADD SWAP1 PUSH1 0x20 ADD DUP1 DUP4 GT PUSH2 0x8A3 JUMPI DUP3 SWAP1 SUB PUSH1 0x1F AND DUP3 ADD SWAP2 JUMPDEST POP POP POP POP POP SWAP1 POP SWAP1 JUMP JUMPDEST PUSH1 0x0 PUSH2 0x8D5 DUP3 PUSH2 0x1BEB JUMP JUMPDEST PUSH2 0x8F2 JUMPI PUSH1 0x40 MLOAD PUSH4 0x33D1C039 PUSH1 0xE2 SHL DUP2 MSTORE PUSH1 0x4 ADD PUSH1 0x40 MLOAD DUP1 SWAP2 SUB SWAP1 REVERT JUMPDEST POP PUSH1 0x0 SWAP1 DUP2 MSTORE PUSH1 0x6 PUSH1 0x20 MSTORE PUSH1 0x40 SWAP1 KECCAK256 SLOAD PUSH1 0x1 PUSH1 0x1 PUSH1 0xA0 SHL SUB AND SWAP1 JUMP JUMPDEST PUSH1 0x0 PUSH2 0x919 DUP3 PUSH2 0xE3C JUMP JUMPDEST SWAP1 POP CALLER PUSH1 0x1 PUSH1 0x1 PUSH1 0xA0 SHL SUB DUP3 AND EQ PUSH2 0x96F JUMPI PUSH1 0x1 PUSH1 0x1 PUSH1 0xA0 SHL SUB DUP2 AND PUSH1 0x0 SWAP1 DUP2 MSTORE PUSH1 0x7 PUSH1 0x20 SWAP1 DUP2 MSTORE PUSH1 0x40 DUP1 DUP4 KECCAK256 CALLER DUP5 MSTORE SWAP1 SWAP2 MSTORE SWAP1 KECCAK256 SLOAD PUSH1 0xFF AND PUSH2 0x96F JUMPI PUSH1 0x40 MLOAD PUSH4 0x67D9DCA1 PUSH1 0xE1 SHL DUP2 MSTORE PUSH1 0x4 ADD PUSH1 0x40 MLOAD DUP1 SWAP2 SUB SWAP1 REVERT JUMPDEST PUSH1 0x0 DUP3 DUP2 MSTORE PUSH1 0x6 PUSH1 0x20 MSTORE PUSH1 0x40 DUP1 DUP3 KECCAK256 DUP1 SLOAD PUSH1 0x1 PUSH1 0x1 PUSH1 0xA0 SHL SUB NOT AND PUSH1 0x1 PUSH1 0x1 PUSH1 0xA0 SHL SUB DUP8 DUP2 AND SWAP2 DUP3 OR SWAP1 SWAP3 SSTORE SWAP2 MLOAD DUP6 SWAP4 SWAP2 DUP6 AND SWAP2 PUSH32 0x8C5BE1E5EBEC7D5BD14F71427D1E84F3DD0314C0F7B2291E5B200AC8C7C3B925 SWAP2 LOG4 POP POP POP JUMP JUMPDEST PUSH1 0x0 PUSH2 0x9D6 DUP3 PUSH2 0x1C20 JUMP JUMPDEST SWAP1 POP DUP4 PUSH1 0x1 PUSH1 0x1 PUSH1 0xA0 SHL SUB AND DUP2 PUSH1 0x1 PUSH1 0x1 PUSH1 0xA0 SHL SUB AND EQ PUSH2 0xA09 JUMPI PUSH1 0x40 MLOAD PUSH3 0xA11481 PUSH1 0xE8 SHL DUP2 MSTORE PUSH1 0x4 ADD PUSH1 0x40 MLOAD DUP1 SWAP2 SUB SWAP1 REVERT JUMPDEST PUSH1 0x0 DUP3 DUP2 MSTORE PUSH1 0x6 PUSH1 0x20 MSTORE PUSH1 0x40 SWAP1 KECCAK256 DUP1 SLOAD CALLER DUP1 DUP3 EQ PUSH1 0x1 PUSH1 0x1 PUSH1 0xA0 SHL SUB DUP9 AND SWAP1 SWAP2 EQ OR PUSH2 0xA73 JUMPI PUSH1 0x1 PUSH1 0x1 PUSH1 0xA0 SHL SUB DUP7 AND PUSH1 0x0 SWAP1 DUP2 MSTORE PUSH1 0x7 PUSH1 0x20 SWAP1 DUP2 MSTORE PUSH1 0x40 DUP1 DUP4 KECCAK256 CALLER DUP5 MSTORE SWAP1 SWAP2 MSTORE SWAP1 KECCAK256 SLOAD PUSH1 0xFF AND PUSH2 0xA73 JUMPI PUSH1 0x40 MLOAD PUSH4 0x2CE44B5F PUSH1 0xE1 SHL DUP2 MSTORE PUSH1 0x4 ADD PUSH1 0x40 MLOAD DUP1 SWAP2 SUB SWAP1 REVERT JUMPDEST PUSH1 0x1 PUSH1 0x1 PUSH1 0xA0 SHL SUB DUP6 AND PUSH2 0xA9A JUMPI PUSH1 0x40 MLOAD PUSH4 0x3A954ECD PUSH1 0xE2 SHL DUP2 MSTORE PUSH1 0x4 ADD PUSH1 0x40 MLOAD DUP1 SWAP2 SUB SWAP1 REVERT JUMPDEST DUP1 ISZERO PUSH2 0xAA5 JUMPI PUSH1 0x0 DUP3 SSTORE JUMPDEST PUSH1 0x1 PUSH1 0x1 PUSH1 0xA0 SHL SUB DUP7 DUP2 AND PUSH1 0x0 SWAP1 DUP2 MSTORE PUSH1 0x5 PUSH1 0x20 MSTORE PUSH1 0x40 DUP1 DUP3 KECCAK256 DUP1 SLOAD PUSH1 0x0 NOT ADD SWAP1 SSTORE SWAP2 DUP8 AND DUP1 DUP3 MSTORE SWAP2 SWAP1 KECCAK256 DUP1 SLOAD PUSH1 0x1 ADD SWAP1 SSTORE TIMESTAMP PUSH1 0xA0 SHL OR PUSH1 0x1 PUSH1 0xE1 SHL OR PUSH1 0x0 DUP6 DUP2 MSTORE PUSH1 0x4 PUSH1 0x20 MSTORE PUSH1 0x40 DUP2 KECCAK256 SWAP2 SWAP1 SWAP2 SSTORE PUSH1 0x1 PUSH1 0xE1 SHL DUP5 AND SWAP1 SUB PUSH2 0xB37 JUMPI PUSH1 0x1 DUP5 ADD PUSH1 0x0 DUP2 DUP2 MSTORE PUSH1 0x4 PUSH1 0x20 MSTORE PUSH1 0x40 DUP2 KECCAK256 SLOAD SWAP1 SUB PUSH2 0xB35 JUMPI PUSH1 0x0 SLOAD DUP2 EQ PUSH2 0xB35 JUMPI PUSH1 0x0 DUP2 DUP2 MSTORE PUSH1 0x4 PUSH1 0x20 MSTORE PUSH1 0x40 SWAP1 KECCAK256 DUP5 SWAP1 SSTORE JUMPDEST POP JUMPDEST DUP4 DUP6 PUSH1 0x1 PUSH1 0x1 PUSH1 0xA0 SHL SUB AND DUP8 PUSH1 0x1 PUSH1 0x1 PUSH1 0xA0 SHL SUB AND PUSH32 0xDDF252AD1BE2C89B69C2B068FC378DAA952BA7F163C4A11628F55A4DF523B3EF PUSH1 0x40 MLOAD PUSH1 0x40 MLOAD DUP1 SWAP2 SUB SWAP1 LOG4 JUMPDEST POP POP POP POP POP POP JUMP JUMPDEST PUSH1 0x8 SLOAD PUSH1 0x9 SLOAD PUSH1 0x0 SWAP2 DUP3 SWAP2 PUSH1 0x1 PUSH1 0x1 PUSH1 0xA0 SHL SUB SWAP1 SWAP2 AND SWAP1 PUSH2 0x2710 SWAP1 PUSH2 0xBA7 SWAP1 DUP7 SWAP1 PUSH2 0x24A3 JUMP JUMPDEST PUSH2 0xBB1 SWAP2 SWAP1 PUSH2 0x24BA JUMP JUMPDEST SWAP2 POP SWAP2 POP JUMPDEST SWAP3 POP SWAP3 SWAP1 POP JUMP JUMPDEST PUSH2 0xBC5 PUSH2 0x1C8F JUMP JUMPDEST PUSH1 0x1 PUSH1 0x1 PUSH1 0xA0 SHL SUB DUP2 AND PUSH2 0xC46 JUMPI PUSH1 0x40 MLOAD PUSH3 0x461BCD PUSH1 0xE5 SHL DUP2 MSTORE PUSH1 0x20 PUSH1 0x4 DUP3 ADD MSTORE PUSH1 0x33 PUSH1 0x24 DUP3 ADD MSTORE PUSH32 0x45524337323141544C436F72653A204E65772061646D696E2063616E6E6F7420 PUSH1 0x44 DUP3 ADD MSTORE PUSH32 0x626520746865207A65726F206164647265737300000000000000000000000000 PUSH1 0x64 DUP3 ADD MSTORE PUSH1 0x84 ADD JUMPDEST PUSH1 0x40 MLOAD DUP1 SWAP2 SUB SWAP1 REVERT JUMPDEST PUSH1 0xF DUP1 SLOAD PUSH1 0x1 PUSH1 0x1 PUSH1 0xA0 SHL SUB NOT AND PUSH1 0x1 PUSH1 0x1 PUSH1 0xA0 SHL SUB SWAP3 SWAP1 SWAP3 AND SWAP2 SWAP1 SWAP2 OR SWAP1 SSTORE JUMP JUMPDEST PUSH2 0xC70 PUSH2 0x1C8F JUMP JUMPDEST PUSH1 0x1 PUSH1 0x1 PUSH1 0xA0 SHL SUB DUP2 AND PUSH2 0xCEC JUMPI PUSH1 0x40 MLOAD PUSH3 0x461BCD PUSH1 0xE5 SHL DUP2 MSTORE PUSH1 0x20 PUSH1 0x4 DUP3 ADD MSTORE PUSH1 0x38 PUSH1 0x24 DUP3 ADD MSTORE PUSH32 0x45524337323141544C436F72653A205061796F75742061646472657373206361 PUSH1 0x44 DUP3 ADD MSTORE PUSH32 0x6E6E6F7420626520746865207A65726F20616464726573730000000000000000 PUSH1 0x64 DUP3 ADD MSTORE PUSH1 0x84 ADD PUSH2 0xC3D JUMP JUMPDEST PUSH1 0xE DUP1 SLOAD PUSH1 0x1 PUSH1 0x1 PUSH1 0xA0 SHL SUB NOT AND PUSH1 0x1 PUSH1 0x1 PUSH1 0xA0 SHL SUB SWAP3 SWAP1 SWAP3 AND SWAP2 SWAP1 SWAP2 OR SWAP1 SSTORE JUMP JUMPDEST PUSH1 0x1 PUSH1 0x1 PUSH1 0xA0 SHL SUB DUP2 AND PUSH1 0x0 SWAP1 DUP2 MSTORE PUSH1 0x5 PUSH1 0x20 MSTORE PUSH1 0x40 DUP1 DUP3 KECCAK256 SLOAD PUSH8 0xFFFFFFFFFFFFFFFF SWAP2 SHR AND PUSH2 0x832 JUMP JUMPDEST PUSH2 0xD54 DUP4 DUP4 DUP4 PUSH1 0x40 MLOAD DUP1 PUSH1 0x20 ADD PUSH1 0x40 MSTORE DUP1 PUSH1 0x0 DUP2 MSTORE POP PUSH2 0x146D JUMP JUMPDEST POP POP POP JUMP JUMPDEST PUSH1 0xF SLOAD PUSH1 0x1 PUSH1 0x1 PUSH1 0xA0 SHL SUB AND CALLER EQ DUP1 PUSH2 0xD7C JUMPI POP PUSH1 0xA SLOAD PUSH1 0x1 PUSH1 0x1 PUSH1 0xA0 SHL SUB AND CALLER EQ JUMPDEST PUSH2 0xDC8 JUMPI PUSH1 0x40 MLOAD PUSH3 0x461BCD PUSH1 0xE5 SHL DUP2 MSTORE PUSH1 0x20 PUSH1 0x4 DUP3 ADD MSTORE PUSH1 0x29 PUSH1 0x24 DUP3 ADD MSTORE PUSH1 0x0 DUP1 MLOAD PUSH1 0x20 PUSH2 0x26C0 DUP4 CODECOPY DUP2 MLOAD SWAP2 MSTORE PUSH1 0x44 DUP3 ADD MSTORE PUSH9 0x1037B91037BBB732B9 PUSH1 0xB9 SHL PUSH1 0x64 DUP3 ADD MSTORE PUSH1 0x84 ADD PUSH2 0xC3D JUMP JUMPDEST PUSH1 0xA SLOAD PUSH1 0x1 PUSH1 0xB0 SHL SWAP1 DIV PUSH1 0xFF AND ISZERO PUSH2 0xE2C JUMPI PUSH1 0x40 MLOAD PUSH3 0x461BCD PUSH1 0xE5 SHL DUP2 MSTORE PUSH1 0x20 PUSH1 0x4 DUP3 ADD MSTORE PUSH1 0x21 PUSH1 0x24 DUP3 ADD MSTORE PUSH32 0x45524337323141544C436F72653A204D657461646174612069732066726F7A65 PUSH1 0x44 DUP3 ADD MSTORE PUSH1 0x37 PUSH1 0xF9 SHL PUSH1 0x64 DUP3 ADD MSTORE PUSH1 0x84 ADD PUSH2 0xC3D JUMP JUMPDEST PUSH1 0x11 PUSH2 0xE38 DUP3 DUP3 PUSH2 0x2522 JUMP JUMPDEST POP POP JUMP JUMPDEST PUSH1 0x0 PUSH2 0x832 DUP3 PUSH2 0x1C20 JUMP JUMPDEST PUSH1 0x0 PUSH1 0x1 PUSH1 0x1 PUSH1 0xA0 SHL SUB DUP3 AND PUSH2 0xE70 JUMPI PUSH1 0x40 MLOAD PUSH4 0x23D3AD81 PUSH1 0xE2 SHL DUP2 MSTORE PUSH1 0x4 ADD PUSH1 0x40 MLOAD DUP1 SWAP2 SUB SWAP1 REVERT JUMPDEST POP PUSH1 0x1 PUSH1 0x1 PUSH1 0xA0 SHL SUB AND PUSH1 0x0 SWAP1 DUP2 MSTORE PUSH1 0x5 PUSH1 0x20 MSTORE PUSH1 0x40 SWAP1 KECCAK256 SLOAD PUSH8 0xFFFFFFFFFFFFFFFF AND SWAP1 JUMP JUMPDEST PUSH2 0xE9E PUSH2 0x1C8F JUMP JUMPDEST PUSH2 0xEA8 PUSH1 0x0 PUSH2 0x1CE9 JUMP JUMPDEST JUMP JUMPDEST PUSH1 0xF SLOAD PUSH1 0x1 PUSH1 0x1 PUSH1 0xA0 SHL SUB AND CALLER EQ DUP1 PUSH2 0xECD JUMPI POP PUSH1 0xA SLOAD PUSH1 0x1 PUSH1 0x1 PUSH1 0xA0 SHL SUB AND CALLER EQ JUMPDEST PUSH2 0xF19 JUMPI PUSH1 0x40 MLOAD PUSH3 0x461BCD PUSH1 0xE5 SHL DUP2 MSTORE PUSH1 0x20 PUSH1 0x4 DUP3 ADD MSTORE PUSH1 0x29 PUSH1 0x24 DUP3 ADD MSTORE PUSH1 0x0 DUP1 MLOAD PUSH1 0x20 PUSH2 0x26C0 DUP4 CODECOPY DUP2 MLOAD SWAP2 MSTORE PUSH1 0x44 DUP3 ADD MSTORE PUSH9 0x1037B91037BBB732B9 PUSH1 0xB9 SHL PUSH1 0x64 DUP3 ADD MSTORE PUSH1 0x84 ADD PUSH2 0xC3D JUMP JUMPDEST PUSH1 0xD SLOAD PUSH1 0x1 DUP3 PUSH2 0xF28 PUSH1 0x0 SLOAD SWAP1 JUMP JUMPDEST PUSH2 0xF32 SWAP2 SWAP1 PUSH2 0x25E2 JUMP JUMPDEST PUSH2 0xF3C SWAP2 SWAP1 PUSH2 0x25F5 JUMP JUMPDEST GT ISZERO PUSH2 0xF96 JUMPI PUSH1 0x40 MLOAD PUSH3 0x461BCD PUSH1 0xE5 SHL DUP2 MSTORE PUSH1 0x20 PUSH1 0x4 DUP3 ADD MSTORE PUSH1 0x23 PUSH1 0x24 DUP3 ADD MSTORE PUSH32 0x45524337323141544C436F72653A204E6F20746F6B656E20737570706C79206C PUSH1 0x44 DUP3 ADD MSTORE PUSH3 0x19599D PUSH1 0xEA SHL PUSH1 0x64 DUP3 ADD MSTORE PUSH1 0x84 ADD PUSH2 0xC3D JUMP JUMPDEST PUSH1 0x0 JUMPDEST DUP2 DUP2 LT ISZERO PUSH2 0xD54 JUMPI PUSH2 0xFD2 DUP4 DUP4 DUP4 DUP2 DUP2 LT PUSH2 0xFB6 JUMPI PUSH2 0xFB6 PUSH2 0x2608 JUMP JUMPDEST SWAP1 POP PUSH1 0x20 MUL ADD PUSH1 0x20 DUP2 ADD SWAP1 PUSH2 0xFCB SWAP2 SWAP1 PUSH2 0x215A JUMP JUMPDEST PUSH1 0x1 PUSH2 0x1D3B JUMP JUMPDEST DUP1 PUSH2 0xFDC DUP2 PUSH2 0x261E JUMP JUMPDEST SWAP2 POP POP PUSH2 0xF99 JUMP JUMPDEST PUSH1 0xF SLOAD PUSH1 0x1 PUSH1 0x1 PUSH1 0xA0 SHL SUB AND CALLER EQ DUP1 PUSH2 0x1007 JUMPI POP PUSH1 0xA SLOAD PUSH1 0x1 PUSH1 0x1 PUSH1 0xA0 SHL SUB AND CALLER EQ JUMPDEST PUSH2 0x1053 JUMPI PUSH1 0x40 MLOAD PUSH3 0x461BCD PUSH1 0xE5 SHL DUP2 MSTORE PUSH1 0x20 PUSH1 0x4 DUP3 ADD MSTORE PUSH1 0x29 PUSH1 0x24 DUP3 ADD MSTORE PUSH1 0x0 DUP1 MLOAD PUSH1 0x20 PUSH2 0x26C0 DUP4 CODECOPY DUP2 MLOAD SWAP2 MSTORE PUSH1 0x44 DUP3 ADD MSTORE PUSH9 0x1037B91037BBB732B9 PUSH1 0xB9 SHL PUSH1 0x64 DUP3 ADD MSTORE PUSH1 0x84 ADD PUSH2 0xC3D JUMP JUMPDEST PUSH1 0xE SLOAD PUSH1 0x40 MLOAD PUSH1 0x1 PUSH1 0x1 PUSH1 0xA0 SHL SUB SWAP1 SWAP2 AND SWAP1 SELFBALANCE DUP1 ISZERO PUSH2 0x8FC MUL SWAP2 PUSH1 0x0 DUP2 DUP2 DUP2 DUP6 DUP9 DUP9 CALL SWAP4 POP POP POP POP ISZERO DUP1 ISZERO PUSH2 0x108C JUMPI RETURNDATASIZE PUSH1 0x0 DUP1 RETURNDATACOPY RETURNDATASIZE PUSH1 0x0 REVERT JUMPDEST POP JUMP JUMPDEST PUSH1 0xF SLOAD PUSH1 0x1 PUSH1 0x1 PUSH1 0xA0 SHL SUB AND CALLER EQ DUP1 PUSH2 0x10B2 JUMPI POP PUSH1 0xA SLOAD PUSH1 0x1 PUSH1 0x1 PUSH1 0xA0 SHL SUB AND CALLER EQ JUMPDEST PUSH2 0x10FE JUMPI PUSH1 0x40 MLOAD PUSH3 0x461BCD PUSH1 0xE5 SHL DUP2 MSTORE PUSH1 0x20 PUSH1 0x4 DUP3 ADD MSTORE PUSH1 0x29 PUSH1 0x24 DUP3 ADD MSTORE PUSH1 0x0 DUP1 MLOAD PUSH1 0x20 PUSH2 0x26C0 DUP4 CODECOPY DUP2 MLOAD SWAP2 MSTORE PUSH1 0x44 DUP3 ADD MSTORE PUSH9 0x1037B91037BBB732B9 PUSH1 0xB9 SHL PUSH1 0x64 DUP3 ADD MSTORE PUSH1 0x84 ADD PUSH2 0xC3D JUMP JUMPDEST PUSH1 0x10 SSTORE JUMP JUMPDEST PUSH1 0x60 PUSH1 0x3 DUP1 SLOAD PUSH2 0x847 SWAP1 PUSH2 0x2453 JUMP JUMPDEST CALLER PUSH1 0x0 DUP2 DUP2 MSTORE PUSH1 0x7 PUSH1 0x20 SWAP1 DUP2 MSTORE PUSH1 0x40 DUP1 DUP4 KECCAK256 PUSH1 0x1 PUSH1 0x1 PUSH1 0xA0 SHL SUB DUP8 AND DUP1 DUP6 MSTORE SWAP1 DUP4 MSTORE SWAP3 DUP2 SWAP1 KECCAK256 DUP1 SLOAD PUSH1 0xFF NOT AND DUP7 ISZERO ISZERO SWAP1 DUP2 OR SWAP1 SWAP2 SSTORE SWAP1 MLOAD SWAP1 DUP2 MSTORE SWAP2 SWAP3 SWAP2 PUSH32 0x17307EAB39AB6107E8899845AD3D59BD9653F200F220920489CA2B5937696C31 SWAP2 ADD PUSH1 0x40 MLOAD DUP1 SWAP2 SUB SWAP1 LOG3 POP POP JUMP JUMPDEST PUSH1 0xF SLOAD PUSH1 0x1 PUSH1 0x1 PUSH1 0xA0 SHL SUB AND CALLER EQ DUP1 PUSH2 0x11A1 JUMPI POP PUSH1 0xA SLOAD PUSH1 0x1 PUSH1 0x1 PUSH1 0xA0 SHL SUB AND CALLER EQ JUMPDEST PUSH2 0x11ED JUMPI PUSH1 0x40 MLOAD PUSH3 0x461BCD PUSH1 0xE5 SHL DUP2 MSTORE PUSH1 0x20 PUSH1 0x4 DUP3 ADD MSTORE PUSH1 0x29 PUSH1 0x24 DUP3 ADD MSTORE PUSH1 0x0 DUP1 MLOAD PUSH1 0x20 PUSH2 0x26C0 DUP4 CODECOPY DUP2 MLOAD SWAP2 MSTORE PUSH1 0x44 DUP3 ADD MSTORE PUSH9 0x1037B91037BBB732B9 PUSH1 0xB9 SHL PUSH1 0x64 DUP3 ADD MSTORE PUSH1 0x84 ADD PUSH2 0xC3D JUMP JUMPDEST PUSH1 0xB SSTORE JUMP JUMPDEST PUSH1 0xF SLOAD PUSH1 0x1 PUSH1 0x1 PUSH1 0xA0 SHL SUB AND CALLER EQ DUP1 PUSH2 0x1215 JUMPI POP PUSH1 0xA SLOAD PUSH1 0x1 PUSH1 0x1 PUSH1 0xA0 SHL SUB AND CALLER EQ JUMPDEST PUSH2 0x1261 JUMPI PUSH1 0x40 MLOAD PUSH3 0x461BCD PUSH1 0xE5 SHL DUP2 MSTORE PUSH1 0x20 PUSH1 0x4 DUP3 ADD MSTORE PUSH1 0x29 PUSH1 0x24 DUP3 ADD MSTORE PUSH1 0x0 DUP1 MLOAD PUSH1 0x20 PUSH2 0x26C0 DUP4 CODECOPY DUP2 MLOAD SWAP2 MSTORE PUSH1 0x44 DUP3 ADD MSTORE PUSH9 0x1037B91037BBB732B9 PUSH1 0xB9 SHL PUSH1 0x64 DUP3 ADD MSTORE PUSH1 0x84 ADD PUSH2 0xC3D JUMP JUMPDEST PUSH1 0xA DUP1 SLOAD SWAP2 ISZERO ISZERO PUSH1 0x1 PUSH1 0xA0 SHL MUL PUSH32 0xFFFFFFFFFFFFFFFFFFFFFF00FFFFFFFFFFFFFFFFFFFFFFFFFFFFFFFFFFFFFFFF SWAP1 SWAP3 AND SWAP2 SWAP1 SWAP2 OR SWAP1 SSTORE JUMP JUMPDEST PUSH1 0xF SLOAD PUSH1 0x1 PUSH1 0x1 PUSH1 0xA0 SHL SUB AND CALLER EQ DUP1 PUSH2 0x12BD JUMPI POP PUSH1 0xA SLOAD PUSH1 0x1 PUSH1 0x1 PUSH1 0xA0 SHL SUB AND CALLER EQ JUMPDEST PUSH2 0x1309 JUMPI PUSH1 0x40 MLOAD PUSH3 0x461BCD PUSH1 0xE5 SHL DUP2 MSTORE PUSH1 0x20 PUSH1 0x4 DUP3 ADD MSTORE PUSH1 0x29 PUSH1 0x24 DUP3 ADD MSTORE PUSH1 0x0 DUP1 MLOAD PUSH1 0x20 PUSH2 0x26C0 DUP4 CODECOPY DUP2 MLOAD SWAP2 MSTORE PUSH1 0x44 DUP3 ADD MSTORE PUSH9 0x1037B91037BBB732B9 PUSH1 0xB9 SHL PUSH1 0x64 DUP3 ADD MSTORE PUSH1 0x84 ADD PUSH2 0xC3D JUMP JUMPDEST PUSH1 0xD SLOAD PUSH1 0x1 DUP3 PUSH16 0xFFFFFFFFFFFFFFFFFFFFFFFFFFFFFFFF AND PUSH2 0x132A PUSH1 0x0 SLOAD SWAP1 JUMP JUMPDEST PUSH2 0x1334 SWAP2 SWAP1 PUSH2 0x25E2 JUMP JUMPDEST PUSH2 0x133E SWAP2 SWAP1 PUSH2 0x25F5 JUMP JUMPDEST GT ISZERO PUSH2 0x1398 JUMPI PUSH1 0x40 MLOAD PUSH3 0x461BCD PUSH1 0xE5 SHL DUP2 MSTORE PUSH1 0x20 PUSH1 0x4 DUP3 ADD MSTORE PUSH1 0x23 PUSH1 0x24 DUP3 ADD MSTORE PUSH32 0x45524337323141544C436F72653A204E6F20746F6B656E20737570706C79206C PUSH1 0x44 DUP3 ADD MSTORE PUSH3 0x19599D PUSH1 0xEA SHL PUSH1 0x64 DUP3 ADD MSTORE PUSH1 0x84 ADD PUSH2 0xC3D JUMP JUMPDEST PUSH2 0x108C PUSH2 0x13AD PUSH1 0xA SLOAD PUSH1 0x1 PUSH1 0x1 PUSH1 0xA0 SHL SUB AND SWAP1 JUMP JUMPDEST DUP3 PUSH16 0xFFFFFFFFFFFFFFFFFFFFFFFFFFFFFFFF AND PUSH2 0x1D3B JUMP JUMPDEST PUSH1 0xF SLOAD PUSH1 0x1 PUSH1 0x1 PUSH1 0xA0 SHL SUB AND CALLER EQ DUP1 PUSH2 0x13E8 JUMPI POP PUSH1 0xA SLOAD PUSH1 0x1 PUSH1 0x1 PUSH1 0xA0 SHL SUB AND CALLER EQ JUMPDEST PUSH2 0x1434 JUMPI PUSH1 0x40 MLOAD PUSH3 0x461BCD PUSH1 0xE5 SHL DUP2 MSTORE PUSH1 0x20 PUSH1 0x4 DUP3 ADD MSTORE PUSH1 0x29 PUSH1 0x24 DUP3 ADD MSTORE PUSH1 0x0 DUP1 MLOAD PUSH1 0x20 PUSH2 0x26C0 DUP4 CODECOPY DUP2 MLOAD SWAP2 MSTORE PUSH1 0x44 DUP3 ADD MSTORE PUSH9 0x1037B91037BBB732B9 PUSH1 0xB9 SHL PUSH1 0x64 DUP3 ADD MSTORE PUSH1 0x84 ADD PUSH2 0xC3D JUMP JUMPDEST PUSH1 0xA DUP1 SLOAD SWAP2 ISZERO ISZERO PUSH1 0x1 PUSH1 0xA8 SHL MUL PUSH32 0xFFFFFFFFFFFFFFFFFFFF00FFFFFFFFFFFFFFFFFFFFFFFFFFFFFFFFFFFFFFFFFF SWAP1 SWAP3 AND SWAP2 SWAP1 SWAP2 OR SWAP1 SSTORE JUMP JUMPDEST PUSH2 0x1478 DUP5 DUP5 DUP5 PUSH2 0x9CB JUMP JUMPDEST PUSH1 0x1 PUSH1 0x1 PUSH1 0xA0 SHL SUB DUP4 AND EXTCODESIZE ISZERO PUSH2 0x14B1 JUMPI PUSH2 0x1494 DUP5 DUP5 DUP5 DUP5 PUSH2 0x1E39 JUMP JUMPDEST PUSH2 0x14B1 JUMPI PUSH1 0x40 MLOAD PUSH4 0x68D2BF6B PUSH1 0xE1 SHL DUP2 MSTORE PUSH1 0x4 ADD PUSH1 0x40 MLOAD DUP1 SWAP2 SUB SWAP1 REVERT JUMPDEST POP POP POP POP JUMP JUMPDEST CALLER ORIGIN EQ PUSH2 0x152C JUMPI PUSH1 0x40 MLOAD PUSH3 0x461BCD PUSH1 0xE5 SHL DUP2 MSTORE PUSH1 0x20 PUSH1 0x4 DUP3 ADD MSTORE PUSH1 0x30 PUSH1 0x24 DUP3 ADD MSTORE PUSH32 0x45524337323141544C436F72653A2046756E6374696F6E206D75737420626520 PUSH1 0x44 DUP3 ADD MSTORE PUSH32 0x63616C6C656420627920616E20454F4100000000000000000000000000000000 PUSH1 0x64 DUP3 ADD MSTORE PUSH1 0x84 ADD PUSH2 0xC3D JUMP JUMPDEST PUSH1 0xD SLOAD PUSH1 0x1 DUP5 PUSH2 0x153B PUSH1 0x0 SLOAD SWAP1 JUMP JUMPDEST PUSH2 0x1545 SWAP2 SWAP1 PUSH2 0x25E2 JUMP JUMPDEST PUSH2 0x154F SWAP2 SWAP1 PUSH2 0x25F5 JUMP JUMPDEST GT ISZERO PUSH2 0x15A9 JUMPI PUSH1 0x40 MLOAD PUSH3 0x461BCD PUSH1 0xE5 SHL DUP2 MSTORE PUSH1 0x20 PUSH1 0x4 DUP3 ADD MSTORE PUSH1 0x23 PUSH1 0x24 DUP3 ADD MSTORE PUSH32 0x45524337323141544C436F72653A204E6F20746F6B656E20737570706C79206C PUSH1 0x44 DUP3 ADD MSTORE PUSH3 0x19599D PUSH1 0xEA SHL PUSH1 0x64 DUP3 ADD MSTORE PUSH1 0x84 ADD PUSH2 0xC3D JUMP JUMPDEST DUP3 PUSH1 0xC SLOAD PUSH2 0x15B7 SWAP2 SWAP1 PUSH2 0x24A3 JUMP JUMPDEST CALLVALUE LT ISZERO PUSH2 0x162C JUMPI PUSH1 0x40 MLOAD PUSH3 0x461BCD PUSH1 0xE5 SHL DUP2 MSTORE PUSH1 0x20 PUSH1 0x4 DUP3 ADD MSTORE PUSH1 0x3B PUSH1 0x24 DUP3 ADD MSTORE PUSH32 0x45524337323141544C436F72653A204E6F7420656E6F75676820657468657220 PUSH1 0x44 DUP3 ADD MSTORE PUSH32 0x617474616368656420746F20746865207472616E73616374696F6E0000000000 PUSH1 0x64 DUP3 ADD MSTORE PUSH1 0x84 ADD PUSH2 0xC3D JUMP JUMPDEST PUSH1 0xB SLOAD CALLER PUSH1 0x0 SWAP1 DUP2 MSTORE PUSH1 0x5 PUSH1 0x20 MSTORE PUSH1 0x40 SWAP1 DUP2 SWAP1 KECCAK256 SLOAD DUP6 SWAP2 SHR PUSH8 0xFFFFFFFFFFFFFFFF AND PUSH2 0x1658 SWAP2 SWAP1 PUSH2 0x25E2 JUMP JUMPDEST GT ISZERO PUSH2 0x16CC JUMPI PUSH1 0x40 MLOAD PUSH3 0x461BCD PUSH1 0xE5 SHL DUP2 MSTORE PUSH1 0x20 PUSH1 0x4 DUP3 ADD MSTORE PUSH1 0x25 PUSH1 0x24 DUP3 ADD MSTORE PUSH32 0x45524337323141544C436F72653A204D696E7420616C6C6F77616E6365207265 PUSH1 0x44 DUP3 ADD MSTORE PUSH32 0x6163686564000000000000000000000000000000000000000000000000000000 PUSH1 0x64 DUP3 ADD MSTORE PUSH1 0x84 ADD PUSH2 0xC3D JUMP JUMPDEST PUSH1 0xA SLOAD PUSH1 0x1 PUSH1 0xA0 SHL SWAP1 DIV PUSH1 0xFF AND ISZERO PUSH2 0x17AA JUMPI PUSH1 0x40 MLOAD PUSH12 0xFFFFFFFFFFFFFFFFFFFFFFFF NOT CALLER PUSH1 0x60 SHL AND PUSH1 0x20 DUP3 ADD MSTORE PUSH1 0x0 SWAP1 PUSH1 0x34 ADD PUSH1 0x40 MLOAD PUSH1 0x20 DUP2 DUP4 SUB SUB DUP2 MSTORE SWAP1 PUSH1 0x40 MSTORE DUP1 MLOAD SWAP1 PUSH1 0x20 ADD KECCAK256 SWAP1 POP PUSH2 0x1758 DUP4 DUP4 DUP1 DUP1 PUSH1 0x20 MUL PUSH1 0x20 ADD PUSH1 0x40 MLOAD SWAP1 DUP2 ADD PUSH1 0x40 MSTORE DUP1 SWAP4 SWAP3 SWAP2 SWAP1 DUP2 DUP2 MSTORE PUSH1 0x20 ADD DUP4 DUP4 PUSH1 0x20 MUL DUP1 DUP3 DUP5 CALLDATACOPY PUSH1 0x0 SWAP3 ADD SWAP2 SWAP1 SWAP2 MSTORE POP POP PUSH1 0x10 SLOAD SWAP2 POP DUP5 SWAP1 POP PUSH2 0x1F25 JUMP JUMPDEST PUSH2 0x17A4 JUMPI PUSH1 0x40 MLOAD PUSH3 0x461BCD PUSH1 0xE5 SHL DUP2 MSTORE PUSH1 0x20 PUSH1 0x4 DUP3 ADD MSTORE PUSH1 0x1F PUSH1 0x24 DUP3 ADD MSTORE PUSH32 0x45524337323141544C436F72653A204E6F74206F6E20616C6C6F776C69737400 PUSH1 0x44 DUP3 ADD MSTORE PUSH1 0x64 ADD PUSH2 0xC3D JUMP JUMPDEST POP PUSH2 0x1803 JUMP JUMPDEST PUSH1 0xA SLOAD PUSH1 0x1 PUSH1 0xA8 SHL SWAP1 DIV PUSH1 0xFF AND PUSH2 0x1803 JUMPI PUSH1 0x40 MLOAD PUSH3 0x461BCD PUSH1 0xE5 SHL DUP2 MSTORE PUSH1 0x20 PUSH1 0x4 DUP3 ADD MSTORE PUSH1 0x1C PUSH1 0x24 DUP3 ADD MSTORE PUSH32 0x45524337323141544C436F72653A204D696E74206E6F74206F70656E00000000 PUSH1 0x44 DUP3 ADD MSTORE PUSH1 0x64 ADD PUSH2 0xC3D JUMP JUMPDEST PUSH2 0xD54 CALLER DUP5 PUSH2 0x1D3B JUMP JUMPDEST PUSH1 0x60 PUSH2 0x1818 DUP3 PUSH2 0x1BEB JUMP JUMPDEST PUSH2 0x1835 JUMPI PUSH1 0x40 MLOAD PUSH4 0xA14C4B5 PUSH1 0xE4 SHL DUP2 MSTORE PUSH1 0x4 ADD PUSH1 0x40 MLOAD DUP1 SWAP2 SUB SWAP1 REVERT JUMPDEST PUSH1 0x0 PUSH2 0x183F PUSH2 0x1F3B JUMP JUMPDEST SWAP1 POP DUP1 MLOAD PUSH1 0x0 SUB PUSH2 0x185F JUMPI PUSH1 0x40 MLOAD DUP1 PUSH1 0x20 ADD PUSH1 0x40 MSTORE DUP1 PUSH1 0x0 DUP2 MSTORE POP PUSH2 0x188A JUMP JUMPDEST DUP1 PUSH2 0x1869 DUP5 PUSH2 0x1F4A JUMP JUMPDEST PUSH1 0x40 MLOAD PUSH1 0x20 ADD PUSH2 0x187A SWAP3 SWAP2 SWAP1 PUSH2 0x2637 JUMP JUMPDEST PUSH1 0x40 MLOAD PUSH1 0x20 DUP2 DUP4 SUB SUB DUP2 MSTORE SWAP1 PUSH1 0x40 MSTORE JUMPDEST SWAP4 SWAP3 POP POP POP JUMP JUMPDEST PUSH1 0xF SLOAD PUSH1 0x1 PUSH1 0x1 PUSH1 0xA0 SHL SUB AND CALLER EQ DUP1 PUSH2 0x18B4 JUMPI POP PUSH1 0xA SLOAD PUSH1 0x1 PUSH1 0x1 PUSH1 0xA0 SHL SUB AND CALLER EQ JUMPDEST PUSH2 0x1900 JUMPI PUSH1 0x40 MLOAD PUSH3 0x461BCD PUSH1 0xE5 SHL DUP2 MSTORE PUSH1 0x20 PUSH1 0x4 DUP3 ADD MSTORE PUSH1 0x29 PUSH1 0x24 DUP3 ADD MSTORE PUSH1 0x0 DUP1 MLOAD PUSH1 0x20 PUSH2 0x26C0 DUP4 CODECOPY DUP2 MLOAD SWAP2 MSTORE PUSH1 0x44 DUP3 ADD MSTORE PUSH9 0x1037B91037BBB732B9 PUSH1 0xB9 SHL PUSH1 0x64 DUP3 ADD MSTORE PUSH1 0x84 ADD PUSH2 0xC3D JUMP JUMPDEST PUSH1 0xA DUP1 SLOAD PUSH32 0xFFFFFFFFFFFFFFFFFF00FFFFFFFFFFFFFFFFFFFFFFFFFFFFFFFFFFFFFFFFFFFF AND PUSH1 0x1 PUSH1 0xB0 SHL OR SWAP1 SSTORE JUMP JUMPDEST PUSH1 0xF SLOAD PUSH1 0x1 PUSH1 0x1 PUSH1 0xA0 SHL SUB AND CALLER EQ DUP1 PUSH2 0x1953 JUMPI POP PUSH1 0xA SLOAD PUSH1 0x1 PUSH1 0x1 PUSH1 0xA0 SHL SUB AND CALLER EQ JUMPDEST PUSH2 0x199F JUMPI PUSH1 0x40 MLOAD PUSH3 0x461BCD PUSH1 0xE5 SHL DUP2 MSTORE PUSH1 0x20 PUSH1 0x4 DUP3 ADD MSTORE PUSH1 0x29 PUSH1 0x24 DUP3 ADD MSTORE PUSH1 0x0 DUP1 MLOAD PUSH1 0x20 PUSH2 0x26C0 DUP4 CODECOPY DUP2 MLOAD SWAP2 MSTORE PUSH1 0x44 DUP3 ADD MSTORE PUSH9 0x1037B91037BBB732B9 PUSH1 0xB9 SHL PUSH1 0x64 DUP3 ADD MSTORE PUSH1 0x84 ADD PUSH2 0xC3D JUMP JUMPDEST PUSH1 0x1 PUSH1 0x1 PUSH1 0xA0 SHL SUB DUP3 AND PUSH2 0x1A1D JUMPI PUSH1 0x40 DUP1 MLOAD PUSH3 0x461BCD PUSH1 0xE5 SHL DUP2 MSTORE PUSH1 0x20 PUSH1 0x4 DUP3 ADD MSTORE PUSH1 0x24 DUP2 ADD SWAP2 SWAP1 SWAP2 MSTORE PUSH32 0x45524337323141544C436F72653A2043616E6E6F742073657420726F79616C74 PUSH1 0x44 DUP3 ADD MSTORE PUSH32 0x792072656365697069656E7420746F20746865207A65726F2061646472657373 PUSH1 0x64 DUP3 ADD MSTORE PUSH1 0x84 ADD PUSH2 0xC3D JUMP JUMPDEST PUSH2 0x2710 DUP2 LT PUSH2 0x1A94 JUMPI PUSH1 0x40 MLOAD PUSH3 0x461BCD PUSH1 0xE5 SHL DUP2 MSTORE PUSH1 0x20 PUSH1 0x4 DUP3 ADD MSTORE PUSH1 0x38 PUSH1 0x24 DUP3 ADD MSTORE PUSH32 0x45524337323141544C436F72653A2043616E6E6F742073657420726F79616C74 PUSH1 0x44 DUP3 ADD MSTORE PUSH32 0x792070657263656E746167652061626F76652031303030300000000000000000 PUSH1 0x64 DUP3 ADD MSTORE PUSH1 0x84 ADD PUSH2 0xC3D JUMP JUMPDEST PUSH1 0x8 DUP1 SLOAD PUSH1 0x1 PUSH1 0x1 PUSH1 0xA0 SHL SUB NOT AND PUSH1 0x1 PUSH1 0x1 PUSH1 0xA0 SHL SUB SWAP4 SWAP1 SWAP4 AND SWAP3 SWAP1 SWAP3 OR SWAP1 SWAP2 SSTORE PUSH1 0x9 SSTORE JUMP JUMPDEST PUSH1 0x0 DUP1 SLOAD PUSH1 0xD SLOAD PUSH2 0x1ACC SWAP1 PUSH1 0x1 PUSH2 0x25E2 JUMP JUMPDEST PUSH2 0x1AD6 SWAP2 SWAP1 PUSH2 0x25F5 JUMP JUMPDEST SWAP1 POP SWAP1 JUMP JUMPDEST PUSH2 0x1AE3 PUSH2 0x1C8F JUMP JUMPDEST PUSH1 0x1 PUSH1 0x1 PUSH1 0xA0 SHL SUB DUP2 AND PUSH2 0x1B5F JUMPI PUSH1 0x40 MLOAD PUSH3 0x461BCD PUSH1 0xE5 SHL DUP2 MSTORE PUSH1 0x20 PUSH1 0x4 DUP3 ADD MSTORE PUSH1 0x26 PUSH1 0x24 DUP3 ADD MSTORE PUSH32 0x4F776E61626C653A206E6577206F776E657220697320746865207A65726F2061 PUSH1 0x44 DUP3 ADD MSTORE PUSH32 0x6464726573730000000000000000000000000000000000000000000000000000 PUSH1 0x64 DUP3 ADD MSTORE PUSH1 0x84 ADD PUSH2 0xC3D JUMP JUMPDEST PUSH2 0x108C DUP2 PUSH2 0x1CE9 JUMP JUMPDEST PUSH1 0x0 PUSH4 0x1FFC9A7 PUSH1 0xE0 SHL PUSH1 0x1 PUSH1 0x1 PUSH1 0xE0 SHL SUB NOT DUP4 AND EQ DUP1 PUSH2 0x1B99 JUMPI POP PUSH4 0x80AC58CD PUSH1 0xE0 SHL PUSH1 0x1 PUSH1 0x1 PUSH1 0xE0 SHL SUB NOT DUP4 AND EQ JUMPDEST DUP1 PUSH2 0x832 JUMPI POP POP PUSH1 0x1 PUSH1 0x1 PUSH1 0xE0 SHL SUB NOT AND PUSH4 0x5B5E139F PUSH1 0xE0 SHL EQ SWAP1 JUMP JUMPDEST PUSH1 0x0 PUSH1 0x1 PUSH1 0x1 PUSH1 0xE0 SHL SUB NOT DUP3 AND PUSH4 0x152A902D PUSH1 0xE1 SHL EQ DUP1 PUSH2 0x832 JUMPI POP PUSH4 0x1FFC9A7 PUSH1 0xE0 SHL PUSH1 0x1 PUSH1 0x1 PUSH1 0xE0 SHL SUB NOT DUP4 AND EQ PUSH2 0x832 JUMP JUMPDEST PUSH1 0x0 DUP2 PUSH1 0x1 GT ISZERO DUP1 ISZERO PUSH2 0x1BFF JUMPI POP PUSH1 0x0 SLOAD DUP3 LT JUMPDEST DUP1 ISZERO PUSH2 0x832 JUMPI POP POP PUSH1 0x0 SWAP1 DUP2 MSTORE PUSH1 0x4 PUSH1 0x20 MSTORE PUSH1 0x40 SWAP1 KECCAK256 SLOAD PUSH1 0x1 PUSH1 0xE0 SHL AND ISZERO SWAP1 JUMP JUMPDEST PUSH1 0x0 DUP2 DUP1 PUSH1 0x1 GT PUSH2 0x1C76 JUMPI PUSH1 0x0 SLOAD DUP2 LT ISZERO PUSH2 0x1C76 JUMPI PUSH1 0x0 DUP2 DUP2 MSTORE PUSH1 0x4 PUSH1 0x20 MSTORE PUSH1 0x40 DUP2 KECCAK256 SLOAD SWAP1 PUSH1 0x1 PUSH1 0xE0 SHL DUP3 AND SWAP1 SUB PUSH2 0x1C74 JUMPI JUMPDEST DUP1 PUSH1 0x0 SUB PUSH2 0x188A JUMPI POP PUSH1 0x0 NOT ADD PUSH1 0x0 DUP2 DUP2 MSTORE PUSH1 0x4 PUSH1 0x20 MSTORE PUSH1 0x40 SWAP1 KECCAK256 SLOAD PUSH2 0x1C53 JUMP JUMPDEST POP JUMPDEST PUSH1 0x40 MLOAD PUSH4 0x6F96CDA1 PUSH1 0xE1 SHL DUP2 MSTORE PUSH1 0x4 ADD PUSH1 0x40 MLOAD DUP1 SWAP2 SUB SWAP1 REVERT JUMPDEST PUSH1 0xA SLOAD PUSH1 0x1 PUSH1 0x1 PUSH1 0xA0 SHL SUB AND CALLER EQ PUSH2 0xEA8 JUMPI PUSH1 0x40 MLOAD PUSH3 0x461BCD PUSH1 0xE5 SHL DUP2 MSTORE PUSH1 0x20 PUSH1 0x4 DUP3 ADD DUP2 SWAP1 MSTORE PUSH1 0x24 DUP3 ADD MSTORE PUSH32 0x4F776E61626C653A2063616C6C6572206973206E6F7420746865206F776E6572 PUSH1 0x44 DUP3 ADD MSTORE PUSH1 0x64 ADD PUSH2 0xC3D JUMP JUMPDEST PUSH1 0xA DUP1 SLOAD PUSH1 0x1 PUSH1 0x1 PUSH1 0xA0 SHL SUB DUP4 DUP2 AND PUSH1 0x1 PUSH1 0x1 PUSH1 0xA0 SHL SUB NOT DUP4 AND DUP2 OR SWAP1 SWAP4 SSTORE PUSH1 0x40 MLOAD SWAP2 AND SWAP2 SWAP1 DUP3 SWAP1 PUSH32 0x8BE0079C531659141344CD1FD0A4F28419497F9722A3DAAFE3B4186F6B6457E0 SWAP1 PUSH1 0x0 SWAP1 LOG3 POP POP JUMP JUMPDEST PUSH1 0x0 DUP1 SLOAD SWAP1 DUP3 SWAP1 SUB PUSH2 0x1D60 JUMPI PUSH1 0x40 MLOAD PUSH4 0xB562E8DD PUSH1 0xE0 SHL DUP2 MSTORE PUSH1 0x4 ADD PUSH1 0x40 MLOAD DUP1 SWAP2 SUB SWAP1 REVERT JUMPDEST PUSH1 0x1 PUSH1 0x1 PUSH1 0xA0 SHL SUB DUP4 AND PUSH1 0x0 DUP2 DUP2 MSTORE PUSH1 0x5 PUSH1 0x20 SWAP1 DUP2 MSTORE PUSH1 0x40 DUP1 DUP4 KECCAK256 DUP1 SLOAD PUSH9 0x10000000000000001 DUP9 MUL ADD SWAP1 SSTORE DUP5 DUP4 MSTORE PUSH1 0x4 SWAP1 SWAP2 MSTORE DUP2 KECCAK256 PUSH1 0x1 DUP6 EQ PUSH1 0xE1 SHL TIMESTAMP PUSH1 0xA0 SHL OR DUP4 OR SWAP1 SSTORE DUP3 DUP5 ADD SWAP1 DUP4 SWAP1 DUP4 SWAP1 PUSH32 0xDDF252AD1BE2C89B69C2B068FC378DAA952BA7F163C4A11628F55A4DF523B3EF DUP2 DUP1 LOG4 PUSH1 0x1 DUP4 ADD JUMPDEST DUP2 DUP2 EQ PUSH2 0x1E0F JUMPI DUP1 DUP4 PUSH1 0x0 PUSH32 0xDDF252AD1BE2C89B69C2B068FC378DAA952BA7F163C4A11628F55A4DF523B3EF PUSH1 0x0 DUP1 LOG4 PUSH1 0x1 ADD PUSH2 0x1DD7 JUMP JUMPDEST POP DUP2 PUSH1 0x0 SUB PUSH2 0x1E30 JUMPI PUSH1 0x40 MLOAD PUSH3 0x2E0763 PUSH1 0xE8 SHL DUP2 MSTORE PUSH1 0x4 ADD PUSH1 0x40 MLOAD DUP1 SWAP2 SUB SWAP1 REVERT JUMPDEST PUSH1 0x0 SSTORE POP POP POP POP JUMP JUMPDEST PUSH1 0x40 MLOAD PUSH4 0xA85BD01 PUSH1 0xE1 SHL DUP2 MSTORE PUSH1 0x0 SWAP1 PUSH1 0x1 PUSH1 0x1 PUSH1 0xA0 SHL SUB DUP6 AND SWAP1 PUSH4 0x150B7A02 SWAP1 PUSH2 0x1E6E SWAP1 CALLER SWAP1 DUP10 SWAP1 DUP9 SWAP1 DUP9 SWAP1 PUSH1 0x4 ADD PUSH2 0x2666 JUMP JUMPDEST PUSH1 0x20 PUSH1 0x40 MLOAD DUP1 DUP4 SUB DUP2 PUSH1 0x0 DUP8 GAS CALL SWAP3 POP POP POP DUP1 ISZERO PUSH2 0x1EA9 JUMPI POP PUSH1 0x40 DUP1 MLOAD PUSH1 0x1F RETURNDATASIZE SWAP1 DUP2 ADD PUSH1 0x1F NOT AND DUP3 ADD SWAP1 SWAP3 MSTORE PUSH2 0x1EA6 SWAP2 DUP2 ADD SWAP1 PUSH2 0x26A2 JUMP JUMPDEST PUSH1 0x1 JUMPDEST PUSH2 0x1F07 JUMPI RETURNDATASIZE DUP1 DUP1 ISZERO PUSH2 0x1ED7 JUMPI PUSH1 0x40 MLOAD SWAP2 POP PUSH1 0x1F NOT PUSH1 0x3F RETURNDATASIZE ADD AND DUP3 ADD PUSH1 0x40 MSTORE RETURNDATASIZE DUP3 MSTORE RETURNDATASIZE PUSH1 0x0 PUSH1 0x20 DUP5 ADD RETURNDATACOPY PUSH2 0x1EDC JUMP JUMPDEST PUSH1 0x60 SWAP2 POP JUMPDEST POP DUP1 MLOAD PUSH1 0x0 SUB PUSH2 0x1EFF JUMPI PUSH1 0x40 MLOAD PUSH4 0x68D2BF6B PUSH1 0xE1 SHL DUP2 MSTORE PUSH1 0x4 ADD PUSH1 0x40 MLOAD DUP1 SWAP2 SUB SWAP1 REVERT JUMPDEST DUP1 MLOAD DUP2 PUSH1 0x20 ADD REVERT JUMPDEST PUSH1 0x1 PUSH1 0x1 PUSH1 0xE0 SHL SUB NOT AND PUSH4 0xA85BD01 PUSH1 0xE1 SHL EQ SWAP1 POP JUMPDEST SWAP5 SWAP4 POP POP POP POP JUMP JUMPDEST PUSH1 0x0 DUP3 PUSH2 0x1F32 DUP6 DUP5 PUSH2 0x1F8E JUMP JUMPDEST EQ SWAP5 SWAP4 POP POP POP POP JUMP JUMPDEST PUSH1 0x60 PUSH1 0x11 DUP1 SLOAD PUSH2 0x847 SWAP1 PUSH2 0x2453 JUMP JUMPDEST PUSH1 0x60 PUSH1 0xA0 PUSH1 0x40 MLOAD ADD DUP1 PUSH1 0x40 MSTORE PUSH1 0x20 DUP2 SUB SWAP2 POP POP PUSH1 0x0 DUP2 MSTORE DUP1 DUP3 JUMPDEST PUSH1 0x1 DUP4 SUB SWAP3 POP PUSH1 0xA DUP2 MOD PUSH1 0x30 ADD DUP4 MSTORE8 PUSH1 0xA SWAP1 DIV DUP1 PUSH2 0x1F64 JUMPI POP DUP2 SWAP1 SUB PUSH1 0x1F NOT SWAP1 SWAP2 ADD SWAP1 DUP2 MSTORE SWAP2 SWAP1 POP JUMP JUMPDEST PUSH1 0x0 DUP2 DUP2 JUMPDEST DUP5 MLOAD DUP2 LT ISZERO PUSH2 0x1FD3 JUMPI PUSH2 0x1FBF DUP3 DUP7 DUP4 DUP2 MLOAD DUP2 LT PUSH2 0x1FB2 JUMPI PUSH2 0x1FB2 PUSH2 0x2608 JUMP JUMPDEST PUSH1 0x20 MUL PUSH1 0x20 ADD ADD MLOAD PUSH2 0x1FDB JUMP JUMPDEST SWAP2 POP DUP1 PUSH2 0x1FCB DUP2 PUSH2 0x261E JUMP JUMPDEST SWAP2 POP POP PUSH2 0x1F93 JUMP JUMPDEST POP SWAP4 SWAP3 POP POP POP JUMP JUMPDEST PUSH1 0x0 DUP2 DUP4 LT PUSH2 0x1FF7 JUMPI PUSH1 0x0 DUP3 DUP2 MSTORE PUSH1 0x20 DUP5 SWAP1 MSTORE PUSH1 0x40 SWAP1 KECCAK256 PUSH2 0x188A JUMP JUMPDEST POP PUSH1 0x0 SWAP2 DUP3 MSTORE PUSH1 0x20 MSTORE PUSH1 0x40 SWAP1 KECCAK256 SWAP1 JUMP JUMPDEST PUSH1 0x1 PUSH1 0x1 PUSH1 0xE0 SHL SUB NOT DUP2 AND DUP2 EQ PUSH2 0x108C JUMPI PUSH1 0x0 DUP1 REVERT JUMPDEST PUSH1 0x0 PUSH1 0x20 DUP3 DUP5 SUB SLT ISZERO PUSH2 0x202F JUMPI PUSH1 0x0 DUP1 REVERT JUMPDEST DUP2 CALLDATALOAD PUSH2 0x188A DUP2 PUSH2 0x2007 JUMP JUMPDEST PUSH1 0x0 JUMPDEST DUP4 DUP2 LT ISZERO PUSH2 0x2055 JUMPI DUP2 DUP2 ADD MLOAD DUP4 DUP3 ADD MSTORE PUSH1 0x20 ADD PUSH2 0x203D JUMP JUMPDEST POP POP PUSH1 0x0 SWAP2 ADD MSTORE JUMP JUMPDEST PUSH1 0x0 DUP2 MLOAD DUP1 DUP5 MSTORE PUSH2 0x2076 DUP2 PUSH1 0x20 DUP7 ADD PUSH1 0x20 DUP7 ADD PUSH2 0x203A JUMP JUMPDEST PUSH1 0x1F ADD PUSH1 0x1F NOT AND SWAP3 SWAP1 SWAP3 ADD PUSH1 0x20 ADD SWAP3 SWAP2 POP POP JUMP JUMPDEST PUSH1 0x20 DUP2 MSTORE PUSH1 0x0 PUSH2 0x188A PUSH1 0x20 DUP4 ADD DUP5 PUSH2 0x205E JUMP JUMPDEST PUSH1 0x0 PUSH1 0x20 DUP3 DUP5 SUB SLT ISZERO PUSH2 0x20AF JUMPI PUSH1 0x0 DUP1 REVERT JUMPDEST POP CALLDATALOAD SWAP2 SWAP1 POP JUMP JUMPDEST DUP1 CALLDATALOAD PUSH1 0x1 PUSH1 0x1 PUSH1 0xA0 SHL SUB DUP2 AND DUP2 EQ PUSH2 0x20CD JUMPI PUSH1 0x0 DUP1 REVERT JUMPDEST SWAP2 SWAP1 POP JUMP JUMPDEST PUSH1 0x0 DUP1 PUSH1 0x40 DUP4 DUP6 SUB SLT ISZERO PUSH2 0x20E5 JUMPI PUSH1 0x0 DUP1 REVERT JUMPDEST PUSH2 0x20EE DUP4 PUSH2 0x20B6 JUMP JUMPDEST SWAP5 PUSH1 0x20 SWAP4 SWAP1 SWAP4 ADD CALLDATALOAD SWAP4 POP POP POP JUMP JUMPDEST PUSH1 0x0 DUP1 PUSH1 0x0 PUSH1 0x60 DUP5 DUP7 SUB SLT ISZERO PUSH2 0x2111 JUMPI PUSH1 0x0 DUP1 REVERT JUMPDEST PUSH2 0x211A DUP5 PUSH2 0x20B6 JUMP JUMPDEST SWAP3 POP PUSH2 0x2128 PUSH1 0x20 DUP6 ADD PUSH2 0x20B6 JUMP JUMPDEST SWAP2 POP PUSH1 0x40 DUP5 ADD CALLDATALOAD SWAP1 POP SWAP3 POP SWAP3 POP SWAP3 JUMP JUMPDEST PUSH1 0x0 DUP1 PUSH1 0x40 DUP4 DUP6 SUB SLT ISZERO PUSH2 0x214B JUMPI PUSH1 0x0 DUP1 REVERT JUMPDEST POP POP DUP1 CALLDATALOAD SWAP3 PUSH1 0x20 SWAP1 SWAP2 ADD CALLDATALOAD SWAP2 POP JUMP JUMPDEST PUSH1 0x0 PUSH1 0x20 DUP3 DUP5 SUB SLT ISZERO PUSH2 0x216C JUMPI PUSH1 0x0 DUP1 REVERT JUMPDEST PUSH2 0x188A DUP3 PUSH2 0x20B6 JUMP JUMPDEST PUSH4 0x4E487B71 PUSH1 0xE0 SHL PUSH1 0x0 MSTORE PUSH1 0x41 PUSH1 0x4 MSTORE PUSH1 0x24 PUSH1 0x0 REVERT JUMPDEST PUSH1 0x0 PUSH8 0xFFFFFFFFFFFFFFFF DUP1 DUP5 GT ISZERO PUSH2 0x21A6 JUMPI PUSH2 0x21A6 PUSH2 0x2175 JUMP JUMPDEST PUSH1 0x40 MLOAD PUSH1 0x1F DUP6 ADD PUSH1 0x1F NOT SWAP1 DUP2 AND PUSH1 0x3F ADD AND DUP2 ADD SWAP1 DUP3 DUP3 GT DUP2 DUP4 LT OR ISZERO PUSH2 0x21CE JUMPI PUSH2 0x21CE PUSH2 0x2175 JUMP JUMPDEST DUP2 PUSH1 0x40 MSTORE DUP1 SWAP4 POP DUP6 DUP2 MSTORE DUP7 DUP7 DUP7 ADD GT ISZERO PUSH2 0x21E7 JUMPI PUSH1 0x0 DUP1 REVERT JUMPDEST DUP6 DUP6 PUSH1 0x20 DUP4 ADD CALLDATACOPY PUSH1 0x0 PUSH1 0x20 DUP8 DUP4 ADD ADD MSTORE POP POP POP SWAP4 SWAP3 POP POP POP JUMP JUMPDEST PUSH1 0x0 PUSH1 0x20 DUP3 DUP5 SUB SLT ISZERO PUSH2 0x2213 JUMPI PUSH1 0x0 DUP1 REVERT JUMPDEST DUP2 CALLDATALOAD PUSH8 0xFFFFFFFFFFFFFFFF DUP2 GT ISZERO PUSH2 0x222A JUMPI PUSH1 0x0 DUP1 REVERT JUMPDEST DUP3 ADD PUSH1 0x1F DUP2 ADD DUP5 SGT PUSH2 0x223B JUMPI PUSH1 0x0 DUP1 REVERT JUMPDEST PUSH2 0x1F1D DUP5 DUP3 CALLDATALOAD PUSH1 0x20 DUP5 ADD PUSH2 0x218B JUMP JUMPDEST PUSH1 0x0 DUP1 DUP4 PUSH1 0x1F DUP5 ADD SLT PUSH2 0x225C JUMPI PUSH1 0x0 DUP1 REVERT JUMPDEST POP DUP2 CALLDATALOAD PUSH8 0xFFFFFFFFFFFFFFFF DUP2 GT ISZERO PUSH2 0x2274 JUMPI PUSH1 0x0 DUP1 REVERT JUMPDEST PUSH1 0x20 DUP4 ADD SWAP2 POP DUP4 PUSH1 0x20 DUP3 PUSH1 0x5 SHL DUP6 ADD ADD GT ISZERO PUSH2 0xBB6 JUMPI PUSH1 0x0 DUP1 REVERT JUMPDEST PUSH1 0x0 DUP1 PUSH1 0x20 DUP4 DUP6 SUB SLT ISZERO PUSH2 0x22A2 JUMPI PUSH1 0x0 DUP1 REVERT JUMPDEST DUP3 CALLDATALOAD PUSH8 0xFFFFFFFFFFFFFFFF DUP2 GT ISZERO PUSH2 0x22B9 JUMPI PUSH1 0x0 DUP1 REVERT JUMPDEST PUSH2 0x22C5 DUP6 DUP3 DUP7 ADD PUSH2 0x224A JUMP JUMPDEST SWAP1 SWAP7 SWAP1 SWAP6 POP SWAP4 POP POP POP POP JUMP JUMPDEST DUP1 CALLDATALOAD DUP1 ISZERO ISZERO DUP2 EQ PUSH2 0x20CD JUMPI PUSH1 0x0 DUP1 REVERT JUMPDEST PUSH1 0x0 DUP1 PUSH1 0x40 DUP4 DUP6 SUB SLT ISZERO PUSH2 0x22F4 JUMPI PUSH1 0x0 DUP1 REVERT JUMPDEST PUSH2 0x22FD DUP4 PUSH2 0x20B6 JUMP JUMPDEST SWAP2 POP PUSH2 0x230B PUSH1 0x20 DUP5 ADD PUSH2 0x22D1 JUMP JUMPDEST SWAP1 POP SWAP3 POP SWAP3 SWAP1 POP JUMP JUMPDEST PUSH1 0x0 PUSH1 0x20 DUP3 DUP5 SUB SLT ISZERO PUSH2 0x2326 JUMPI PUSH1 0x0 DUP1 REVERT JUMPDEST PUSH2 0x188A DUP3 PUSH2 0x22D1 JUMP JUMPDEST PUSH1 0x0 PUSH1 0x20 DUP3 DUP5 SUB SLT ISZERO PUSH2 0x2341 JUMPI PUSH1 0x0 DUP1 REVERT JUMPDEST DUP2 CALLDATALOAD PUSH16 0xFFFFFFFFFFFFFFFFFFFFFFFFFFFFFFFF DUP2 AND DUP2 EQ PUSH2 0x188A JUMPI PUSH1 0x0 DUP1 REVERT JUMPDEST PUSH1 0x0 DUP1 PUSH1 0x0 DUP1 PUSH1 0x80 DUP6 DUP8 SUB SLT ISZERO PUSH2 0x2377 JUMPI PUSH1 0x0 DUP1 REVERT JUMPDEST PUSH2 0x2380 DUP6 PUSH2 0x20B6 JUMP JUMPDEST SWAP4 POP PUSH2 0x238E PUSH1 0x20 DUP7 ADD PUSH2 0x20B6 JUMP JUMPDEST SWAP3 POP PUSH1 0x40 DUP6 ADD CALLDATALOAD SWAP2 POP PUSH1 0x60 DUP6 ADD CALLDATALOAD PUSH8 0xFFFFFFFFFFFFFFFF DUP2 GT ISZERO PUSH2 0x23B1 JUMPI PUSH1 0x0 DUP1 REVERT JUMPDEST DUP6 ADD PUSH1 0x1F DUP2 ADD DUP8 SGT PUSH2 0x23C2 JUMPI PUSH1 0x0 DUP1 REVERT JUMPDEST PUSH2 0x23D1 DUP8 DUP3 CALLDATALOAD PUSH1 0x20 DUP5 ADD PUSH2 0x218B JUMP JUMPDEST SWAP2 POP POP SWAP3 SWAP6 SWAP2 SWAP5 POP SWAP3 POP JUMP JUMPDEST PUSH1 0x0 DUP1 PUSH1 0x0 PUSH1 0x40 DUP5 DUP7 SUB SLT ISZERO PUSH2 0x23F2 JUMPI PUSH1 0x0 DUP1 REVERT JUMPDEST DUP4 CALLDATALOAD SWAP3 POP PUSH1 0x20 DUP5 ADD CALLDATALOAD PUSH8 0xFFFFFFFFFFFFFFFF DUP2 GT ISZERO PUSH2 0x2410 JUMPI PUSH1 0x0 DUP1 REVERT JUMPDEST PUSH2 0x241C DUP7 DUP3 DUP8 ADD PUSH2 0x224A JUMP JUMPDEST SWAP5 SWAP8 SWAP1 SWAP7 POP SWAP4 SWAP5 POP POP POP POP JUMP JUMPDEST PUSH1 0x0 DUP1 PUSH1 0x40 DUP4 DUP6 SUB SLT ISZERO PUSH2 0x243C JUMPI PUSH1 0x0 DUP1 REVERT JUMPDEST PUSH2 0x2445 DUP4 PUSH2 0x20B6 JUMP JUMPDEST SWAP2 POP PUSH2 0x230B PUSH1 0x20 DUP5 ADD PUSH2 0x20B6 JUMP JUMPDEST PUSH1 0x1 DUP2 DUP2 SHR SWAP1 DUP3 AND DUP1 PUSH2 0x2467 JUMPI PUSH1 0x7F DUP3 AND SWAP2 POP JUMPDEST PUSH1 0x20 DUP3 LT DUP2 SUB PUSH2 0x2487 JUMPI PUSH4 0x4E487B71 PUSH1 0xE0 SHL PUSH1 0x0 MSTORE PUSH1 0x22 PUSH1 0x4 MSTORE PUSH1 0x24 PUSH1 0x0 REVERT JUMPDEST POP SWAP2 SWAP1 POP JUMP JUMPDEST PUSH4 0x4E487B71 PUSH1 0xE0 SHL PUSH1 0x0 MSTORE PUSH1 0x11 PUSH1 0x4 MSTORE PUSH1 0x24 PUSH1 0x0 REVERT JUMPDEST DUP1 DUP3 MUL DUP2 ISZERO DUP3 DUP3 DIV DUP5 EQ OR PUSH2 0x832 JUMPI PUSH2 0x832 PUSH2 0x248D JUMP JUMPDEST PUSH1 0x0 DUP3 PUSH2 0x24D7 JUMPI PUSH4 0x4E487B71 PUSH1 0xE0 SHL PUSH1 0x0 MSTORE PUSH1 0x12 PUSH1 0x4 MSTORE PUSH1 0x24 PUSH1 0x0 REVERT JUMPDEST POP DIV SWAP1 JUMP JUMPDEST PUSH1 0x1F DUP3 GT ISZERO PUSH2 0xD54 JUMPI PUSH1 0x0 DUP2 DUP2 MSTORE PUSH1 0x20 DUP2 KECCAK256 PUSH1 0x1F DUP6 ADD PUSH1 0x5 SHR DUP2 ADD PUSH1 0x20 DUP7 LT ISZERO PUSH2 0x2503 JUMPI POP DUP1 JUMPDEST PUSH1 0x1F DUP6 ADD PUSH1 0x5 SHR DUP3 ADD SWAP2 POP JUMPDEST DUP2 DUP2 LT ISZERO PUSH2 0xB79 JUMPI DUP3 DUP2 SSTORE PUSH1 0x1 ADD PUSH2 0x250F JUMP JUMPDEST DUP2 MLOAD PUSH8 0xFFFFFFFFFFFFFFFF DUP2 GT ISZERO PUSH2 0x253C JUMPI PUSH2 0x253C PUSH2 0x2175 JUMP JUMPDEST PUSH2 0x2550 DUP2 PUSH2 0x254A DUP5 SLOAD PUSH2 0x2453 JUMP JUMPDEST DUP5 PUSH2 0x24DC JUMP JUMPDEST PUSH1 0x20 DUP1 PUSH1 0x1F DUP4 GT PUSH1 0x1 DUP2 EQ PUSH2 0x2585 JUMPI PUSH1 0x0 DUP5 ISZERO PUSH2 0x256D JUMPI POP DUP6 DUP4 ADD MLOAD JUMPDEST PUSH1 0x0 NOT PUSH1 0x3 DUP7 SWAP1 SHL SHR NOT AND PUSH1 0x1 DUP6 SWAP1 SHL OR DUP6 SSTORE PUSH2 0xB79 JUMP JUMPDEST PUSH1 0x0 DUP6 DUP2 MSTORE PUSH1 0x20 DUP2 KECCAK256 PUSH1 0x1F NOT DUP7 AND SWAP2 JUMPDEST DUP3 DUP2 LT ISZERO PUSH2 0x25B4 JUMPI DUP9 DUP7 ADD MLOAD DUP3 SSTORE SWAP5 DUP5 ADD SWAP5 PUSH1 0x1 SWAP1 SWAP2 ADD SWAP1 DUP5 ADD PUSH2 0x2595 JUMP JUMPDEST POP DUP6 DUP3 LT ISZERO PUSH2 0x25D2 JUMPI DUP8 DUP6 ADD MLOAD PUSH1 0x0 NOT PUSH1 0x3 DUP9 SWAP1 SHL PUSH1 0xF8 AND SHR NOT AND DUP2 SSTORE JUMPDEST POP POP POP POP POP PUSH1 0x1 SWAP1 DUP2 SHL ADD SWAP1 SSTORE POP JUMP JUMPDEST DUP1 DUP3 ADD DUP1 DUP3 GT ISZERO PUSH2 0x832 JUMPI PUSH2 0x832 PUSH2 0x248D JUMP JUMPDEST DUP2 DUP2 SUB DUP2 DUP2 GT ISZERO PUSH2 0x832 JUMPI PUSH2 0x832 PUSH2 0x248D JUMP JUMPDEST PUSH4 0x4E487B71 PUSH1 0xE0 SHL PUSH1 0x0 MSTORE PUSH1 0x32 PUSH1 0x4 MSTORE PUSH1 0x24 PUSH1 0x0 REVERT JUMPDEST PUSH1 0x0 PUSH1 0x1 DUP3 ADD PUSH2 0x2630 JUMPI PUSH2 0x2630 PUSH2 0x248D JUMP JUMPDEST POP PUSH1 0x1 ADD SWAP1 JUMP JUMPDEST PUSH1 0x0 DUP4 MLOAD PUSH2 0x2649 DUP2 DUP5 PUSH1 0x20 DUP9 ADD PUSH2 0x203A JUMP JUMPDEST DUP4 MLOAD SWAP1 DUP4 ADD SWAP1 PUSH2 0x265D DUP2 DUP4 PUSH1 0x20 DUP9 ADD PUSH2 0x203A JUMP JUMPDEST ADD SWAP5 SWAP4 POP POP POP POP JUMP JUMPDEST PUSH1 0x0 PUSH1 0x1 PUSH1 0x1 PUSH1 0xA0 SHL SUB DUP1 DUP8 AND DUP4 MSTORE DUP1 DUP7 AND PUSH1 0x20 DUP5 ADD MSTORE POP DUP4 PUSH1 0x40 DUP4 ADD MSTORE PUSH1 0x80 PUSH1 0x60 DUP4 ADD MSTORE PUSH2 0x2698 PUSH1 0x80 DUP4 ADD DUP5 PUSH2 0x205E JUMP JUMPDEST SWAP7 SWAP6 POP POP POP POP POP POP JUMP JUMPDEST PUSH1 0x0 PUSH1 0x20 DUP3 DUP5 SUB SLT ISZERO PUSH2 0x26B4 JUMPI PUSH1 0x0 DUP1 REVERT JUMPDEST DUP2 MLOAD PUSH2 0x188A DUP2 PUSH2 0x2007 JUMP INVALID GASLIMIT MSTORE NUMBER CALLDATACOPY ORIGIN BALANCE COINBASE SLOAD 0x4C NUMBER PUSH16 0x72653A2041646472657373206E6F7420 PUSH2 0x646D PUSH10 0x6EA164736F6C63430008 GT STOP EXP "},"methodIdentifiers":{"adminAddress()":"fc6f9468","airdrop(address[])":"729ad39e","allowlistMerkleRoot()":"293108e0","allowlistSaleOpen()":"a809f7a5","approve(address,uint256)":"095ea7b3","balanceOf(address)":"70a08231","freezeMetadata()":"d111515d","frozen()":"054f7d9c","getApproved(uint256)":"081812fc","getNumMinted(address)":"3d6dc6cf","getRemainingSupply()":"e4b7fb73","isApprovedForAll(address,address)":"e985e9c5","maxSupply()":"d5abeb01","mint(uint256,bytes32[])":"ba41b0c6","mintAllowance()":"396876bd","mintPrice()":"6817c76c","name()":"06fdde03","owner()":"8da5cb5b","ownerMint(uint128)":"ae23d613","ownerOf(uint256)":"6352211e","payoutAddress()":"5b8d02d7","provenanceHash()":"c6ab67a3","publicSaleOpen()":"f9e23799","renounceOwnership()":"715018a6","royaltyInfo(uint256,uint256)":"2a55205a","safeTransferFrom(address,address,uint256)":"42842e0e","safeTransferFrom(address,address,uint256,bytes)":"b88d4fde","setAdminAddress(address)":"2c1e816d","setAllowlistSaleStatus(bool)":"ae129b17","setApprovalForAll(address,bool)":"a22cb465","setBaseURI(string)":"55f804b3","setMerkleRoot(bytes32)":"7cb64759","setMintAllowance(uint256)":"acf080d1","setPayoutAddress(address)":"33ea51a8","setPublicSaleStatus(bool)":"b423fe67","setRoyaltyInfo(address,uint256)":"e2e784d5","supportsInterface(bytes4)":"01ffc9a7","symbol()":"95d89b41","tokenURI(uint256)":"c87b56dd","totalSupply()":"18160ddd","transferFrom(address,address,uint256)":"23b872dd","transferOwnership(address)":"f2fde38b","withdrawEther()":"7362377b"}},"storageLayout":{"storage":[{"astId":2561,"contract":"contracts/nft/YumiNFT.sol:YumiNFT","label":"_currentIndex","offset":0,"slot":"0","type":"t_uint256"},{"astId":2563,"contract":"contracts/nft/YumiNFT.sol:YumiNFT","label":"_burnCounter","offset":0,"slot":"1","type":"t_uint256"},{"astId":2565,"contract":"contracts/nft/YumiNFT.sol:YumiNFT","label":"_name","offset":0,"slot":"2","type":"t_string_storage"},{"astId":2567,"contract":"contracts/nft/YumiNFT.sol:YumiNFT","label":"_symbol","offset":0,"slot":"3","type":"t_string_storage"},{"astId":2571,"contract":"contracts/nft/YumiNFT.sol:YumiNFT","label":"_packedOwnerships","offset":0,"slot":"4","type":"t_mapping(t_uint256,t_uint256)"},{"astId":2575,"contract":"contracts/nft/YumiNFT.sol:YumiNFT","label":"_packedAddressData","offset":0,"slot":"5","type":"t_mapping(t_address,t_uint256)"},{"astId":2580,"contract":"contracts/nft/YumiNFT.sol:YumiNFT","label":"_tokenApprovals","offset":0,"slot":"6","type":"t_mapping(t_uint256,t_struct(TokenApprovalRef)2493_storage)"},{"astId":2586,"contract":"contracts/nft/YumiNFT.sol:YumiNFT","label":"_operatorApprovals","offset":0,"slot":"7","type":"t_mapping(t_address,t_mapping(t_address,t_bool))"},{"astId":1548,"contract":"contracts/nft/YumiNFT.sol:YumiNFT","label":"royaltyAddr","offset":0,"slot":"8","type":"t_address"},{"astId":1550,"contract":"contracts/nft/YumiNFT.sol:YumiNFT","label":"royaltyPerc","offset":0,"slot":"9","type":"t_uint256"},{"astId":7,"contract":"contracts/nft/YumiNFT.sol:YumiNFT","label":"_owner","offset":0,"slot":"10","type":"t_address"},{"astId":1627,"contract":"contracts/nft/YumiNFT.sol:YumiNFT","label":"allowlistSaleOpen","offset":20,"slot":"10","type":"t_bool"},{"astId":1629,"contract":"contracts/nft/YumiNFT.sol:YumiNFT","label":"publicSaleOpen","offset":21,"slot":"10","type":"t_bool"},{"astId":1631,"contract":"contracts/nft/YumiNFT.sol:YumiNFT","label":"frozen","offset":22,"slot":"10","type":"t_bool"},{"astId":1633,"contract":"contracts/nft/YumiNFT.sol:YumiNFT","label":"mintAllowance","offset":0,"slot":"11","type":"t_uint256"},{"astId":1635,"contract":"contracts/nft/YumiNFT.sol:YumiNFT","label":"mintPrice","offset":0,"slot":"12","type":"t_uint256"},{"astId":1637,"contract":"contracts/nft/YumiNFT.sol:YumiNFT","label":"maxSupply","offset":0,"slot":"13","type":"t_uint256"},{"astId":1639,"contract":"contracts/nft/YumiNFT.sol:YumiNFT","label":"payoutAddress","offset":0,"slot":"14","type":"t_address_payable"},{"astId":1641,"contract":"contracts/nft/YumiNFT.sol:YumiNFT","label":"adminAddress","offset":0,"slot":"15","type":"t_address"},{"astId":1643,"contract":"contracts/nft/YumiNFT.sol:YumiNFT","label":"allowlistMerkleRoot","offset":0,"slot":"16","type":"t_bytes32"},{"astId":1645,"contract":"contracts/nft/YumiNFT.sol:YumiNFT","label":"baseTokenURI","offset":0,"slot":"17","type":"t_string_storage"},{"astId":2164,"contract":"contracts/nft/YumiNFT.sol:YumiNFT","label":"provenanceHash","offset":0,"slot":"18","type":"t_bytes32"}],"types":{"t_address":{"encoding":"inplace","label":"address","numberOfBytes":"20"},"t_address_payable":{"encoding":"inplace","label":"address payable","numberOfBytes":"20"},"t_bool":{"encoding":"inplace","label":"bool","numberOfBytes":"1"},"t_bytes32":{"encoding":"inplace","label":"bytes32","numberOfBytes":"32"},"t_mapping(t_address,t_bool)":{"encoding":"mapping","key":"t_address","label":"mapping(address => bool)","numberOfBytes":"32","value":"t_bool"},"t_mapping(t_address,t_mapping(t_address,t_bool))":{"encoding":"mapping","key":"t_address","label":"mapping(address => mapping(address => bool))","numberOfBytes":"32","value":"t_mapping(t_address,t_bool)"},"t_mapping(t_address,t_uint256)":{"encoding":"mapping","key":"t_address","label":"mapping(address => uint256)","numberOfBytes":"32","value":"t_uint256"},"t_mapping(t_uint256,t_struct(TokenApprovalRef)2493_storage)":{"encoding":"mapping","key":"t_uint256","label":"mapping(uint256 => struct ERC721A.TokenApprovalRef)","numberOfBytes":"32","value":"t_struct(TokenApprovalRef)2493_storage"},"t_mapping(t_uint256,t_uint256)":{"encoding":"mapping","key":"t_uint256","label":"mapping(uint256 => uint256)","numberOfBytes":"32","value":"t_uint256"},"t_string_storage":{"encoding":"bytes","label":"string","numberOfBytes":"32"},"t_struct(TokenApprovalRef)2493_storage":{"encoding":"inplace","label":"struct ERC721A.TokenApprovalRef","members":[{"astId":2492,"contract":"contracts/nft/YumiNFT.sol:YumiNFT","label":"value","offset":0,"slot":"0","type":"t_address"}],"numberOfBytes":"32"},"t_uint256":{"encoding":"inplace","label":"uint256","numberOfBytes":"32"}}}}}}