{
  "_format": "hh-sol-artifact-1",
  "contractName": "YumiNFT",
  "sourceName": "contracts/nft/YumiNFT.sol",
  "abi": [
    {
      "inputs": [
        {
          "internalType": "address",
          "name": "_royaltyAddress",
          "type": "address"
        },
        {
          "internalType": "uint256",
          "name": "_royaltyPerc",
          "type": "uint256"
        },
        {
          "internalType": "address",
          "name": "_admin",
          "type": "address"
        },
        {
          "internalType": "address",
          "name": "_payout",
          "type": "address"
        },
        {
          "internalType": "uint256",
          "name": "_price",
          "type": "uint256"
        },
        {
          "internalType": "uint256",
          "name": "_supply",
          "type": "uint256"
        },
        {
          "internalType": "bytes32",
          "name": "_merkleRoot",
          "type": "bytes32"
        },
        {
          "internalType": "bytes32",
          "name": "_provenanceHash",
          "type": "bytes32"
        }
      ],
      "stateMutability": "nonpayable",
      "type": "constructor"
    },
    {
      "inputs": [],
      "name": "ApprovalCallerNotOwnerNorApproved",
      "type": "error"
    },
    {
      "inputs": [],
      "name": "ApprovalQueryForNonexistentToken",
      "type": "error"
    },
    {
      "inputs": [],
      "name": "BalanceQueryForZeroAddress",
      "type": "error"
    },
    {
      "inputs": [],
      "name": "MintERC2309QuantityExceedsLimit",
      "type": "error"
    },
    {
      "inputs": [],
      "name": "MintToZeroAddress",
      "type": "error"
    },
    {
      "inputs": [],
      "name": "MintZeroQuantity",
      "type": "error"
    },
    {
      "inputs": [],
      "name": "OwnerQueryForNonexistentToken",
      "type": "error"
    },
    {
      "inputs": [],
      "name": "OwnershipNotInitializedForExtraData",
      "type": "error"
    },
    {
      "inputs": [],
      "name": "TransferCallerNotOwnerNorApproved",
      "type": "error"
    },
    {
      "inputs": [],
      "name": "TransferFromIncorrectOwner",
      "type": "error"
    },
    {
      "inputs": [],
      "name": "TransferToNonERC721ReceiverImplementer",
      "type": "error"
    },
    {
      "inputs": [],
      "name": "TransferToZeroAddress",
      "type": "error"
    },
    {
      "inputs": [],
      "name": "URIQueryForNonexistentToken",
      "type": "error"
    },
    {
      "anonymous": false,
      "inputs": [
        {
          "indexed": true,
          "internalType": "address",
          "name": "owner",
          "type": "address"
        },
        {
          "indexed": true,
          "internalType": "address",
          "name": "approved",
          "type": "address"
        },
        {
          "indexed": true,
          "internalType": "uint256",
          "name": "tokenId",
          "type": "uint256"
        }
      ],
      "name": "Approval",
      "type": "event"
    },
    {
      "anonymous": false,
      "inputs": [
        {
          "indexed": true,
          "internalType": "address",
          "name": "owner",
          "type": "address"
        },
        {
          "indexed": true,
          "internalType": "address",
          "name": "operator",
          "type": "address"
        },
        {
          "indexed": false,
          "internalType": "bool",
          "name": "approved",
          "type": "bool"
        }
      ],
      "name": "ApprovalForAll",
      "type": "event"
    },
    {
      "anonymous": false,
      "inputs": [
        {
          "indexed": true,
          "internalType": "uint256",
          "name": "fromTokenId",
          "type": "uint256"
        },
        {
          "indexed": false,
          "internalType": "uint256",
          "name": "toTokenId",
          "type": "uint256"
        },
        {
          "indexed": true,
          "internalType": "address",
          "name": "from",
          "type": "address"
        },
        {
          "indexed": true,
          "internalType": "address",
          "name": "to",
          "type": "address"
        }
      ],
      "name": "ConsecutiveTransfer",
      "type": "event"
    },
    {
      "anonymous": false,
      "inputs": [
        {
          "indexed": true,
          "internalType": "address",
          "name": "previousOwner",
          "type": "address"
        },
        {
          "indexed": true,
          "internalType": "address",
          "name": "newOwner",
          "type": "address"
        }
      ],
      "name": "OwnershipTransferred",
      "type": "event"
    },
    {
      "anonymous": false,
      "inputs": [
        {
          "indexed": true,
          "internalType": "address",
          "name": "from",
          "type": "address"
        },
        {
          "indexed": true,
          "internalType": "address",
          "name": "to",
          "type": "address"
        },
        {
          "indexed": true,
          "internalType": "uint256",
          "name": "tokenId",
          "type": "uint256"
        }
      ],
      "name": "Transfer",
      "type": "event"
    },
    {
      "inputs": [],
      "name": "adminAddress",
      "outputs": [
        {
          "internalType": "address",
          "name": "",
          "type": "address"
        }
      ],
      "stateMutability": "view",
      "type": "function"
    },
    {
      "inputs": [
        {
          "internalType": "address[]",
          "name": "addresses",
          "type": "address[]"
        }
      ],
      "name": "airdrop",
      "outputs": [],
      "stateMutability": "nonpayable",
      "type": "function"
    },
    {
      "inputs": [],
      "name": "allowlistMerkleRoot",
      "outputs": [
        {
          "internalType": "bytes32",
          "name": "",
          "type": "bytes32"
        }
      ],
      "stateMutability": "view",
      "type": "function"
    },
    {
      "inputs": [],
      "name": "allowlistSaleOpen",
      "outputs": [
        {
          "internalType": "bool",
          "name": "",
          "type": "bool"
        }
      ],
      "stateMutability": "view",
      "type": "function"
    },
    {
      "inputs": [
        {
          "internalType": "address",
          "name": "to",
          "type": "address"
        },
        {
          "internalType": "uint256",
          "name": "tokenId",
          "type": "uint256"
        }
      ],
      "name": "approve",
      "outputs": [],
      "stateMutability": "payable",
      "type": "function"
    },
    {
      "inputs": [
        {
          "internalType": "address",
          "name": "owner",
          "type": "address"
        }
      ],
      "name": "balanceOf",
      "outputs": [
        {
          "internalType": "uint256",
          "name": "",
          "type": "uint256"
        }
      ],
      "stateMutability": "view",
      "type": "function"
    },
    {
      "inputs": [],
      "name": "freezeMetadata",
      "outputs": [],
      "stateMutability": "nonpayable",
      "type": "function"
    },
    {
      "inputs": [],
      "name": "frozen",
      "outputs": [
        {
          "internalType": "bool",
          "name": "",
          "type": "bool"
        }
      ],
      "stateMutability": "view",
      "type": "function"
    },
    {
      "inputs": [
        {
          "internalType": "uint256",
          "name": "tokenId",
          "type": "uint256"
        }
      ],
      "name": "getApproved",
      "outputs": [
        {
          "internalType": "address",
          "name": "",
          "type": "address"
        }
      ],
      "stateMutability": "view",
      "type": "function"
    },
    {
      "inputs": [
        {
          "internalType": "address",
          "name": "addr",
          "type": "address"
        }
      ],
      "name": "getNumMinted",
      "outputs": [
        {
          "internalType": "uint256",
          "name": "",
          "type": "uint256"
        }
      ],
      "stateMutability": "view",
      "type": "function"
    },
    {
      "inputs": [],
      "name": "getRemainingSupply",
      "outputs": [
        {
          "internalType": "uint256",
          "name": "",
          "type": "uint256"
        }
      ],
      "stateMutability": "view",
      "type": "function"
    },
    {
      "inputs": [
        {
          "internalType": "address",
          "name": "owner",
          "type": "address"
        },
        {
          "internalType": "address",
          "name": "operator",
          "type": "address"
        }
      ],
      "name": "isApprovedForAll",
      "outputs": [
        {
          "internalType": "bool",
          "name": "",
          "type": "bool"
        }
      ],
      "stateMutability": "view",
      "type": "function"
    },
    {
      "inputs": [],
      "name": "maxSupply",
      "outputs": [
        {
          "internalType": "uint256",
          "name": "",
          "type": "uint256"
        }
      ],
      "stateMutability": "view",
      "type": "function"
    },
    {
      "inputs": [
        {
          "internalType": "uint256",
          "name": "numToMint",
          "type": "uint256"
        },
        {
          "internalType": "bytes32[]",
          "name": "merkleProof",
          "type": "bytes32[]"
        }
      ],
      "name": "mint",
      "outputs": [],
      "stateMutability": "payable",
      "type": "function"
    },
    {
      "inputs": [],
      "name": "mintAllowance",
      "outputs": [
        {
          "internalType": "uint256",
          "name": "",
          "type": "uint256"
        }
      ],
      "stateMutability": "view",
      "type": "function"
    },
    {
      "inputs": [],
      "name": "mintPrice",
      "outputs": [
        {
          "internalType": "uint256",
          "name": "",
          "type": "uint256"
        }
      ],
      "stateMutability": "view",
      "type": "function"
    },
    {
      "inputs": [],
      "name": "name",
      "outputs": [
        {
          "internalType": "string",
          "name": "",
          "type": "string"
        }
      ],
      "stateMutability": "view",
      "type": "function"
    },
    {
      "inputs": [],
      "name": "owner",
      "outputs": [
        {
          "internalType": "address",
          "name": "",
          "type": "address"
        }
      ],
      "stateMutability": "view",
      "type": "function"
    },
    {
      "inputs": [
        {
          "internalType": "uint128",
          "name": "numToMint",
          "type": "uint128"
        }
      ],
      "name": "ownerMint",
      "outputs": [],
      "stateMutability": "nonpayable",
      "type": "function"
    },
    {
      "inputs": [
        {
          "internalType": "uint256",
          "name": "tokenId",
          "type": "uint256"
        }
      ],
      "name": "ownerOf",
      "outputs": [
        {
          "internalType": "address",
          "name": "",
          "type": "address"
        }
      ],
      "stateMutability": "view",
      "type": "function"
    },
    {
      "inputs": [],
      "name": "payoutAddress",
      "outputs": [
        {
          "internalType": "address payable",
          "name": "",
          "type": "address"
        }
      ],
      "stateMutability": "view",
      "type": "function"
    },
    {
      "inputs": [],
      "name": "provenanceHash",
      "outputs": [
        {
          "internalType": "bytes32",
          "name": "",
          "type": "bytes32"
        }
      ],
      "stateMutability": "view",
      "type": "function"
    },
    {
      "inputs": [],
      "name": "publicSaleOpen",
      "outputs": [
        {
          "internalType": "bool",
          "name": "",
          "type": "bool"
        }
      ],
      "stateMutability": "view",
      "type": "function"
    },
    {
      "inputs": [],
      "name": "renounceOwnership",
      "outputs": [],
      "stateMutability": "nonpayable",
      "type": "function"
    },
    {
      "inputs": [
        {
          "internalType": "uint256",
          "name": "_tokenId",
          "type": "uint256"
        },
        {
          "internalType": "uint256",
          "name": "_salePrice",
          "type": "uint256"
        }
      ],
      "name": "royaltyInfo",
      "outputs": [
        {
          "internalType": "address",
          "name": "receiver",
          "type": "address"
        },
        {
          "internalType": "uint256",
          "name": "royaltyAmount",
          "type": "uint256"
        }
      ],
      "stateMutability": "view",
      "type": "function"
    },
    {
      "inputs": [
        {
          "internalType": "address",
          "name": "from",
          "type": "address"
        },
        {
          "internalType": "address",
          "name": "to",
          "type": "address"
        },
        {
          "internalType": "uint256",
          "name": "tokenId",
          "type": "uint256"
        }
      ],
      "name": "safeTransferFrom",
      "outputs": [],
      "stateMutability": "payable",
      "type": "function"
    },
    {
      "inputs": [
        {
          "internalType": "address",
          "name": "from",
          "type": "address"
        },
        {
          "internalType": "address",
          "name": "to",
          "type": "address"
        },
        {
          "internalType": "uint256",
          "name": "tokenId",
          "type": "uint256"
        },
        {
          "internalType": "bytes",
          "name": "_data",
          "type": "bytes"
        }
      ],
      "name": "safeTransferFrom",
      "outputs": [],
      "stateMutability": "payable",
      "type": "function"
    },
    {
      "inputs": [
        {
          "internalType": "address",
          "name": "newAdmin",
          "type": "address"
        }
      ],
      "name": "setAdminAddress",
      "outputs": [],
      "stateMutability": "nonpayable",
      "type": "function"
    },
    {
      "inputs": [
        {
          "internalType": "bool",
          "name": "status",
          "type": "bool"
        }
      ],
      "name": "setAllowlistSaleStatus",
      "outputs": [],
      "stateMutability": "nonpayable",
      "type": "function"
    },
    {
      "inputs": [
        {
          "internalType": "address",
          "name": "operator",
          "type": "address"
        },
        {
          "internalType": "bool",
          "name": "approved",
          "type": "bool"
        }
      ],
      "name": "setApprovalForAll",
      "outputs": [],
      "stateMutability": "nonpayable",
      "type": "function"
    },
    {
      "inputs": [
        {
          "internalType": "string",
          "name": "newURI",
          "type": "string"
        }
      ],
      "name": "setBaseURI",
      "outputs": [],
      "stateMutability": "nonpayable",
      "type": "function"
    },
    {
      "inputs": [
        {
          "internalType": "bytes32",
          "name": "_merkleRoot",
          "type": "bytes32"
        }
      ],
      "name": "setMerkleRoot",
      "outputs": [],
      "stateMutability": "nonpayable",
      "type": "function"
    },
    {
      "inputs": [
        {
          "internalType": "uint256",
          "name": "allowance",
          "type": "uint256"
        }
      ],
      "name": "setMintAllowance",
      "outputs": [],
      "stateMutability": "nonpayable",
      "type": "function"
    },
    {
      "inputs": [
        {
          "internalType": "address",
          "name": "payoutAddr",
          "type": "address"
        }
      ],
      "name": "setPayoutAddress",
      "outputs": [],
      "stateMutability": "nonpayable",
      "type": "function"
    },
    {
      "inputs": [
        {
          "internalType": "bool",
          "name": "status",
          "type": "bool"
        }
      ],
      "name": "setPublicSaleStatus",
      "outputs": [],
      "stateMutability": "nonpayable",
      "type": "function"
    },
    {
      "inputs": [
        {
          "internalType": "address",
          "name": "newAddr",
          "type": "address"
        },
        {
          "internalType": "uint256",
          "name": "newPerc",
          "type": "uint256"
        }
      ],
      "name": "setRoyaltyInfo",
      "outputs": [],
      "stateMutability": "nonpayable",
      "type": "function"
    },
    {
      "inputs": [
        {
          "internalType": "bytes4",
          "name": "interfaceId",
          "type": "bytes4"
        }
      ],
      "name": "supportsInterface",
      "outputs": [
        {
          "internalType": "bool",
          "name": "",
          "type": "bool"
        }
      ],
      "stateMutability": "view",
      "type": "function"
    },
    {
      "inputs": [],
      "name": "symbol",
      "outputs": [
        {
          "internalType": "string",
          "name": "",
          "type": "string"
        }
      ],
      "stateMutability": "view",
      "type": "function"
    },
    {
      "inputs": [
        {
          "internalType": "uint256",
          "name": "tokenId",
          "type": "uint256"
        }
      ],
      "name": "tokenURI",
      "outputs": [
        {
          "internalType": "string",
          "name": "",
          "type": "string"
        }
      ],
      "stateMutability": "view",
      "type": "function"
    },
    {
      "inputs": [],
      "name": "totalSupply",
      "outputs": [
        {
          "internalType": "uint256",
          "name": "",
          "type": "uint256"
        }
      ],
      "stateMutability": "view",
      "type": "function"
    },
    {
      "inputs": [
        {
          "internalType": "address",
          "name": "from",
          "type": "address"
        },
        {
          "internalType": "address",
          "name": "to",
          "type": "address"
        },
        {
          "internalType": "uint256",
          "name": "tokenId",
          "type": "uint256"
        }
      ],
      "name": "transferFrom",
      "outputs": [],
      "stateMutability": "payable",
      "type": "function"
    },
    {
      "inputs": [
        {
          "internalType": "address",
          "name": "newOwner",
          "type": "address"
        }
      ],
      "name": "transferOwnership",
      "outputs": [],
      "stateMutability": "nonpayable",
      "type": "function"
    },
    {
      "inputs": [],
      "name": "withdrawEther",
      "outputs": [],
      "stateMutability": "nonpayable",
      "type": "function"
    }
  ],
  "bytecode": "0x60806040523480156200001157600080fd5b5060405162002a8338038062002a8383398101604081905262000034916200019b565b60405180604001604052806008815260200167165d5b5a4813919560c21b81525060405180604001604052806002815260200161594d60f01b81525089898787878c8c86868a8a81600290816200008c9190620002bb565b5060036200009b8282620002bb565b5060016000555050600880546001600160a01b0319166001600160a01b039390931692909217909155600955620000d9620000d33390565b6200012c565b600c94909455600d92909255601055600f80546001600160a01b039283166001600160a01b031991821617909155600e805492909316911617905550505060129190915550620003879650505050505050565b600a80546001600160a01b038381166001600160a01b0319831681179093556040519116919082907f8be0079c531659141344cd1fd0a4f28419497f9722a3daafe3b4186f6b6457e090600090a35050565b80516001600160a01b03811681146200019657600080fd5b919050565b600080600080600080600080610100898b031215620001b957600080fd5b620001c4896200017e565b975060208901519650620001db60408a016200017e565b9550620001eb60608a016200017e565b94506080890151935060a0890151925060c0890151915060e089015190509295985092959890939650565b634e487b7160e01b600052604160045260246000fd5b600181811c908216806200024157607f821691505b6020821081036200026257634e487b7160e01b600052602260045260246000fd5b50919050565b601f821115620002b657600081815260208120601f850160051c81016020861015620002915750805b601f850160051c820191505b81811015620002b2578281556001016200029d565b5050505b505050565b81516001600160401b03811115620002d757620002d762000216565b620002ef81620002e884546200022c565b8462000268565b602080601f8311600181146200032757600084156200030e5750858301515b600019600386901b1c1916600185901b178555620002b2565b600085815260208120601f198616915b82811015620003585788860151825594840194600190910190840162000337565b5085821015620003775787850151600019600388901b60f8161c191681555b5050505050600190811b01905550565b6126ec80620003976000396000f3fe6080604052600436106102dc5760003560e01c80637362377b11610184578063ba41b0c6116100d6578063e2e784d51161008a578063f2fde38b11610064578063f2fde38b146107b7578063f9e23799146107d7578063fc6f9468146107f857600080fd5b8063e2e784d514610739578063e4b7fb7314610759578063e985e9c51461076e57600080fd5b8063c87b56dd116100bb578063c87b56dd146106ee578063d111515d1461070e578063d5abeb011461072357600080fd5b8063ba41b0c6146106c5578063c6ab67a3146106d857600080fd5b8063a809f7a511610138578063ae23d61311610112578063ae23d61314610672578063b423fe6714610692578063b88d4fde146106b257600080fd5b8063a809f7a514610611578063acf080d114610632578063ae129b171461065257600080fd5b80638da5cb5b116101695780638da5cb5b146105be57806395d89b41146105dc578063a22cb465146105f157600080fd5b80637362377b146105895780637cb647591461059e57600080fd5b806333ea51a81161023d5780635b8d02d7116101f157806370a08231116101cb57806370a0823114610534578063715018a614610554578063729ad39e1461056957600080fd5b80635b8d02d7146104de5780636352211e146104fe5780636817c76c1461051e57600080fd5b80633d6dc6cf116102225780633d6dc6cf1461048b57806342842e0e146104ab57806355f804b3146104be57600080fd5b806333ea51a814610455578063396876bd1461047557600080fd5b806318160ddd11610294578063293108e011610279578063293108e0146103e05780632a55205a146103f65780632c1e816d1461043557600080fd5b806318160ddd146103a657806323b872dd146103cd57600080fd5b806306fdde03116102c557806306fdde0314610337578063081812fc14610359578063095ea7b31461039157600080fd5b806301ffc9a7146102e1578063054f7d9c14610316575b600080fd5b3480156102ed57600080fd5b506103016102fc36600461201d565b610818565b60405190151581526020015b60405180910390f35b34801561032257600080fd5b50600a5461030190600160b01b900460ff1681565b34801561034357600080fd5b5061034c610838565b60405161030d919061208a565b34801561036557600080fd5b5061037961037436600461209d565b6108ca565b6040516001600160a01b03909116815260200161030d565b6103a461039f3660046120d2565b61090e565b005b3480156103b257600080fd5b5060015460005403600019015b60405190815260200161030d565b6103a46103db3660046120fc565b6109cb565b3480156103ec57600080fd5b506103bf60105481565b34801561040257600080fd5b50610416610411366004612138565b610b81565b604080516001600160a01b03909316835260208301919091520161030d565b34801561044157600080fd5b506103a461045036600461215a565b610bbd565b34801561046157600080fd5b506103a461047036600461215a565b610c68565b34801561048157600080fd5b506103bf600b5481565b34801561049757600080fd5b506103bf6104a636600461215a565b610d0e565b6103a46104b93660046120fc565b610d39565b3480156104ca57600080fd5b506103a46104d9366004612201565b610d59565b3480156104ea57600080fd5b50600e54610379906001600160a01b031681565b34801561050a57600080fd5b5061037961051936600461209d565b610e3c565b34801561052a57600080fd5b506103bf600c5481565b34801561054057600080fd5b506103bf61054f36600461215a565b610e47565b34801561056057600080fd5b506103a4610e96565b34801561057557600080fd5b506103a461058436600461228f565b610eaa565b34801561059557600080fd5b506103a4610fe4565b3480156105aa57600080fd5b506103a46105b936600461209d565b61108f565b3480156105ca57600080fd5b50600a546001600160a01b0316610379565b3480156105e857600080fd5b5061034c611103565b3480156105fd57600080fd5b506103a461060c3660046122e1565b611112565b34801561061d57600080fd5b50600a5461030190600160a01b900460ff1681565b34801561063e57600080fd5b506103a461064d36600461209d565b61117e565b34801561065e57600080fd5b506103a461066d366004612314565b6111f2565b34801561067e57600080fd5b506103a461068d36600461232f565b61129a565b34801561069e57600080fd5b506103a46106ad366004612314565b6113c5565b6103a46106c0366004612361565b61146d565b6103a46106d33660046123dd565b6114b7565b3480156106e457600080fd5b506103bf60125481565b3480156106fa57600080fd5b5061034c61070936600461209d565b61180d565b34801561071a57600080fd5b506103a4611891565b34801561072f57600080fd5b506103bf600d5481565b34801561074557600080fd5b506103a46107543660046120d2565b611930565b34801561076557600080fd5b506103bf611aba565b34801561077a57600080fd5b50610301610789366004612429565b6001600160a01b03918216600090815260076020908152604080832093909416825291909152205460ff1690565b3480156107c357600080fd5b506103a46107d236600461215a565b611adb565b3480156107e357600080fd5b50600a5461030190600160a81b900460ff1681565b34801561080457600080fd5b50600f54610379906001600160a01b031681565b600061082382611b68565b80610832575061083282611bb6565b92915050565b60606002805461084790612453565b80601f016020809104026020016040519081016040528092919081815260200182805461087390612453565b80156108c05780601f10610895576101008083540402835291602001916108c0565b820191906000526020600020905b8154815290600101906020018083116108a357829003601f168201915b5050505050905090565b60006108d582611beb565b6108f2576040516333d1c03960e21b815260040160405180910390fd5b506000908152600660205260409020546001600160a01b031690565b600061091982610e3c565b9050336001600160a01b0382161461096f576001600160a01b038116600090815260076020908152604080832033845290915290205460ff1661096f576040516367d9dca160e11b815260040160405180910390fd5b60008281526006602052604080822080546001600160a01b0319166001600160a01b0387811691821790925591518593918516917f8c5be1e5ebec7d5bd14f71427d1e84f3dd0314c0f7b2291e5b200ac8c7c3b92591a4505050565b60006109d682611c20565b9050836001600160a01b0316816001600160a01b031614610a095760405162a1148160e81b815260040160405180910390fd5b60008281526006602052604090208054338082146001600160a01b03881690911417610a73576001600160a01b038616600090815260076020908152604080832033845290915290205460ff16610a7357604051632ce44b5f60e11b815260040160405180910390fd5b6001600160a01b038516610a9a57604051633a954ecd60e21b815260040160405180910390fd5b8015610aa557600082555b6001600160a01b038681166000908152600560205260408082208054600019019055918716808252919020805460010190554260a01b17600160e11b17600085815260046020526040812091909155600160e11b84169003610b3757600184016000818152600460205260408120549003610b35576000548114610b355760008181526004602052604090208490555b505b83856001600160a01b0316876001600160a01b03167fddf252ad1be2c89b69c2b068fc378daa952ba7f163c4a11628f55a4df523b3ef60405160405180910390a45b505050505050565b60085460095460009182916001600160a01b039091169061271090610ba79086906124a3565b610bb191906124ba565b915091505b9250929050565b610bc5611c8f565b6001600160a01b038116610c465760405162461bcd60e51b815260206004820152603360248201527f45524337323141544c436f72653a204e65772061646d696e2063616e6e6f742060448201527f626520746865207a65726f20616464726573730000000000000000000000000060648201526084015b60405180910390fd5b600f80546001600160a01b0319166001600160a01b0392909216919091179055565b610c70611c8f565b6001600160a01b038116610cec5760405162461bcd60e51b815260206004820152603860248201527f45524337323141544c436f72653a205061796f7574206164647265737320636160448201527f6e6e6f7420626520746865207a65726f206164647265737300000000000000006064820152608401610c3d565b600e80546001600160a01b0319166001600160a01b0392909216919091179055565b6001600160a01b0381166000908152600560205260408082205467ffffffffffffffff911c16610832565b610d548383836040518060200160405280600081525061146d565b505050565b600f546001600160a01b0316331480610d7c5750600a546001600160a01b031633145b610dc85760405162461bcd60e51b815260206004820152602960248201526000805160206126c08339815191526044820152681037b91037bbb732b960b91b6064820152608401610c3d565b600a54600160b01b900460ff1615610e2c5760405162461bcd60e51b815260206004820152602160248201527f45524337323141544c436f72653a204d657461646174612069732066726f7a656044820152603760f91b6064820152608401610c3d565b6011610e388282612522565b5050565b600061083282611c20565b60006001600160a01b038216610e70576040516323d3ad8160e21b815260040160405180910390fd5b506001600160a01b031660009081526005602052604090205467ffffffffffffffff1690565b610e9e611c8f565b610ea86000611ce9565b565b600f546001600160a01b0316331480610ecd5750600a546001600160a01b031633145b610f195760405162461bcd60e51b815260206004820152602960248201526000805160206126c08339815191526044820152681037b91037bbb732b960b91b6064820152608401610c3d565b600d54600182610f2860005490565b610f3291906125e2565b610f3c91906125f5565b1115610f965760405162461bcd60e51b815260206004820152602360248201527f45524337323141544c436f72653a204e6f20746f6b656e20737570706c79206c60448201526219599d60ea1b6064820152608401610c3d565b60005b81811015610d5457610fd2838383818110610fb657610fb6612608565b9050602002016020810190610fcb919061215a565b6001611d3b565b80610fdc8161261e565b915050610f99565b600f546001600160a01b03163314806110075750600a546001600160a01b031633145b6110535760405162461bcd60e51b815260206004820152602960248201526000805160206126c08339815191526044820152681037b91037bbb732b960b91b6064820152608401610c3d565b600e546040516001600160a01b03909116904780156108fc02916000818181858888f1935050505015801561108c573d6000803e3d6000fd5b50565b600f546001600160a01b03163314806110b25750600a546001600160a01b031633145b6110fe5760405162461bcd60e51b815260206004820152602960248201526000805160206126c08339815191526044820152681037b91037bbb732b960b91b6064820152608401610c3d565b601055565b60606003805461084790612453565b3360008181526007602090815260408083206001600160a01b03871680855290835292819020805460ff191686151590811790915590519081529192917f17307eab39ab6107e8899845ad3d59bd9653f200f220920489ca2b5937696c31910160405180910390a35050565b600f546001600160a01b03163314806111a15750600a546001600160a01b031633145b6111ed5760405162461bcd60e51b815260206004820152602960248201526000805160206126c08339815191526044820152681037b91037bbb732b960b91b6064820152608401610c3d565b600b55565b600f546001600160a01b03163314806112155750600a546001600160a01b031633145b6112615760405162461bcd60e51b815260206004820152602960248201526000805160206126c08339815191526044820152681037b91037bbb732b960b91b6064820152608401610c3d565b600a8054911515600160a01b027fffffffffffffffffffffff00ffffffffffffffffffffffffffffffffffffffff909216919091179055565b600f546001600160a01b03163314806112bd5750600a546001600160a01b031633145b6113095760405162461bcd60e51b815260206004820152602960248201526000805160206126c08339815191526044820152681037b91037bbb732b960b91b6064820152608401610c3d565b600d546001826fffffffffffffffffffffffffffffffff1661132a60005490565b61133491906125e2565b61133e91906125f5565b11156113985760405162461bcd60e51b815260206004820152602360248201527f45524337323141544c436f72653a204e6f20746f6b656e20737570706c79206c60448201526219599d60ea1b6064820152608401610c3d565b61108c6113ad600a546001600160a01b031690565b826fffffffffffffffffffffffffffffffff16611d3b565b600f546001600160a01b03163314806113e85750600a546001600160a01b031633145b6114345760405162461bcd60e51b815260206004820152602960248201526000805160206126c08339815191526044820152681037b91037bbb732b960b91b6064820152608401610c3d565b600a8054911515600160a81b027fffffffffffffffffffff00ffffffffffffffffffffffffffffffffffffffffff909216919091179055565b6114788484846109cb565b6001600160a01b0383163b156114b15761149484848484611e39565b6114b1576040516368d2bf6b60e11b815260040160405180910390fd5b50505050565b33321461152c5760405162461bcd60e51b815260206004820152603060248201527f45524337323141544c436f72653a2046756e6374696f6e206d7573742062652060448201527f63616c6c656420627920616e20454f41000000000000000000000000000000006064820152608401610c3d565b600d5460018461153b60005490565b61154591906125e2565b61154f91906125f5565b11156115a95760405162461bcd60e51b815260206004820152602360248201527f45524337323141544c436f72653a204e6f20746f6b656e20737570706c79206c60448201526219599d60ea1b6064820152608401610c3d565b82600c546115b791906124a3565b34101561162c5760405162461bcd60e51b815260206004820152603b60248201527f45524337323141544c436f72653a204e6f7420656e6f7567682065746865722060448201527f617474616368656420746f20746865207472616e73616374696f6e00000000006064820152608401610c3d565b600b5433600090815260056020526040908190205485911c67ffffffffffffffff1661165891906125e2565b11156116cc5760405162461bcd60e51b815260206004820152602560248201527f45524337323141544c436f72653a204d696e7420616c6c6f77616e636520726560448201527f61636865640000000000000000000000000000000000000000000000000000006064820152608401610c3d565b600a54600160a01b900460ff16156117aa576040516bffffffffffffffffffffffff193360601b166020820152600090603401604051602081830303815290604052805190602001209050611758838380806020026020016040519081016040528093929190818152602001838360200280828437600092019190915250506010549150849050611f25565b6117a45760405162461bcd60e51b815260206004820152601f60248201527f45524337323141544c436f72653a204e6f74206f6e20616c6c6f776c697374006044820152606401610c3d565b50611803565b600a54600160a81b900460ff166118035760405162461bcd60e51b815260206004820152601c60248201527f45524337323141544c436f72653a204d696e74206e6f74206f70656e000000006044820152606401610c3d565b610d543384611d3b565b606061181882611beb565b61183557604051630a14c4b560e41b815260040160405180910390fd5b600061183f611f3b565b9050805160000361185f576040518060200160405280600081525061188a565b8061186984611f4a565b60405160200161187a929190612637565b6040516020818303038152906040525b9392505050565b600f546001600160a01b03163314806118b45750600a546001600160a01b031633145b6119005760405162461bcd60e51b815260206004820152602960248201526000805160206126c08339815191526044820152681037b91037bbb732b960b91b6064820152608401610c3d565b600a80547fffffffffffffffffff00ffffffffffffffffffffffffffffffffffffffffffff16600160b01b179055565b600f546001600160a01b03163314806119535750600a546001600160a01b031633145b61199f5760405162461bcd60e51b815260206004820152602960248201526000805160206126c08339815191526044820152681037b91037bbb732b960b91b6064820152608401610c3d565b6001600160a01b038216611a1d576040805162461bcd60e51b81526020600482015260248101919091527f45524337323141544c436f72653a2043616e6e6f742073657420726f79616c7460448201527f792072656365697069656e7420746f20746865207a65726f20616464726573736064820152608401610c3d565b6127108110611a945760405162461bcd60e51b815260206004820152603860248201527f45524337323141544c436f72653a2043616e6e6f742073657420726f79616c7460448201527f792070657263656e746167652061626f766520313030303000000000000000006064820152608401610c3d565b600880546001600160a01b0319166001600160a01b039390931692909217909155600955565b60008054600d54611acc9060016125e2565b611ad691906125f5565b905090565b611ae3611c8f565b6001600160a01b038116611b5f5760405162461bcd60e51b815260206004820152602660248201527f4f776e61626c653a206e6577206f776e657220697320746865207a65726f206160448201527f64647265737300000000000000000000000000000000000000000000000000006064820152608401610c3d565b61108c81611ce9565b60006301ffc9a760e01b6001600160e01b031983161480611b9957506380ac58cd60e01b6001600160e01b03198316145b806108325750506001600160e01b031916635b5e139f60e01b1490565b60006001600160e01b0319821663152a902d60e11b148061083257506301ffc9a760e01b6001600160e01b0319831614610832565b600081600111158015611bff575060005482105b8015610832575050600090815260046020526040902054600160e01b161590565b60008180600111611c7657600054811015611c765760008181526004602052604081205490600160e01b82169003611c74575b8060000361188a575060001901600081815260046020526040902054611c53565b505b604051636f96cda160e11b815260040160405180910390fd5b600a546001600160a01b03163314610ea85760405162461bcd60e51b815260206004820181905260248201527f4f776e61626c653a2063616c6c6572206973206e6f7420746865206f776e65726044820152606401610c3d565b600a80546001600160a01b038381166001600160a01b0319831681179093556040519116919082907f8be0079c531659141344cd1fd0a4f28419497f9722a3daafe3b4186f6b6457e090600090a35050565b6000805490829003611d605760405163b562e8dd60e01b815260040160405180910390fd5b6001600160a01b03831660008181526005602090815260408083208054680100000000000000018802019055848352600490915281206001851460e11b4260a01b178317905582840190839083907fddf252ad1be2c89b69c2b068fc378daa952ba7f163c4a11628f55a4df523b3ef8180a4600183015b818114611e0f57808360007fddf252ad1be2c89b69c2b068fc378daa952ba7f163c4a11628f55a4df523b3ef600080a4600101611dd7565b5081600003611e3057604051622e076360e81b815260040160405180910390fd5b60005550505050565b604051630a85bd0160e11b81526000906001600160a01b0385169063150b7a0290611e6e903390899088908890600401612666565b6020604051808303816000875af1925050508015611ea9575060408051601f3d908101601f19168201909252611ea6918101906126a2565b60015b611f07573d808015611ed7576040519150601f19603f3d011682016040523d82523d6000602084013e611edc565b606091505b508051600003611eff576040516368d2bf6b60e11b815260040160405180910390fd5b805181602001fd5b6001600160e01b031916630a85bd0160e11b1490505b949350505050565b600082611f328584611f8e565b14949350505050565b60606011805461084790612453565b606060a06040510180604052602081039150506000815280825b600183039250600a81066030018353600a900480611f645750819003601f19909101908152919050565b600081815b8451811015611fd357611fbf82868381518110611fb257611fb2612608565b6020026020010151611fdb565b915080611fcb8161261e565b915050611f93565b509392505050565b6000818310611ff757600082815260208490526040902061188a565b5060009182526020526040902090565b6001600160e01b03198116811461108c57600080fd5b60006020828403121561202f57600080fd5b813561188a81612007565b60005b8381101561205557818101518382015260200161203d565b50506000910152565b6000815180845261207681602086016020860161203a565b601f01601f19169290920160200192915050565b60208152600061188a602083018461205e565b6000602082840312156120af57600080fd5b5035919050565b80356001600160a01b03811681146120cd57600080fd5b919050565b600080604083850312156120e557600080fd5b6120ee836120b6565b946020939093013593505050565b60008060006060848603121561211157600080fd5b61211a846120b6565b9250612128602085016120b6565b9150604084013590509250925092565b6000806040838503121561214b57600080fd5b50508035926020909101359150565b60006020828403121561216c57600080fd5b61188a826120b6565b634e487b7160e01b600052604160045260246000fd5b600067ffffffffffffffff808411156121a6576121a6612175565b604051601f8501601f19908116603f011681019082821181831017156121ce576121ce612175565b816040528093508581528686860111156121e757600080fd5b858560208301376000602087830101525050509392505050565b60006020828403121561221357600080fd5b813567ffffffffffffffff81111561222a57600080fd5b8201601f8101841361223b57600080fd5b611f1d8482356020840161218b565b60008083601f84011261225c57600080fd5b50813567ffffffffffffffff81111561227457600080fd5b6020830191508360208260051b8501011115610bb657600080fd5b600080602083850312156122a257600080fd5b823567ffffffffffffffff8111156122b957600080fd5b6122c58582860161224a565b90969095509350505050565b803580151581146120cd57600080fd5b600080604083850312156122f457600080fd5b6122fd836120b6565b915061230b602084016122d1565b90509250929050565b60006020828403121561232657600080fd5b61188a826122d1565b60006020828403121561234157600080fd5b81356fffffffffffffffffffffffffffffffff8116811461188a57600080fd5b6000806000806080858703121561237757600080fd5b612380856120b6565b935061238e602086016120b6565b925060408501359150606085013567ffffffffffffffff8111156123b157600080fd5b8501601f810187136123c257600080fd5b6123d18782356020840161218b565b91505092959194509250565b6000806000604084860312156123f257600080fd5b83359250602084013567ffffffffffffffff81111561241057600080fd5b61241c8682870161224a565b9497909650939450505050565b6000806040838503121561243c57600080fd5b612445836120b6565b915061230b602084016120b6565b600181811c9082168061246757607f821691505b60208210810361248757634e487b7160e01b600052602260045260246000fd5b50919050565b634e487b7160e01b600052601160045260246000fd5b80820281158282048414176108325761083261248d565b6000826124d757634e487b7160e01b600052601260045260246000fd5b500490565b601f821115610d5457600081815260208120601f850160051c810160208610156125035750805b601f850160051c820191505b81811015610b795782815560010161250f565b815167ffffffffffffffff81111561253c5761253c612175565b6125508161254a8454612453565b846124dc565b602080601f831160018114612585576000841561256d5750858301515b600019600386901b1c1916600185901b178555610b79565b600085815260208120601f198616915b828110156125b457888601518255948401946001909101908401612595565b50858210156125d25787850151600019600388901b60f8161c191681555b5050505050600190811b01905550565b808201808211156108325761083261248d565b818103818111156108325761083261248d565b634e487b7160e01b600052603260045260246000fd5b6000600182016126305761263061248d565b5060010190565b6000835161264981846020880161203a565b83519083019061265d81836020880161203a565b01949350505050565b60006001600160a01b03808716835280861660208401525083604083015260806060830152612698608083018461205e565b9695505050505050565b6000602082840312156126b457600080fd5b815161188a8161200756fe45524337323141544c436f72653a2041646472657373206e6f742061646d696ea164736f6c6343000811000a",
  "linkReferences": {},
  "deployedLinkReferences": {}
}